{
  "contractName": "base",
  "abi": [
    {
      "inputs": [],
      "stateMutability": "nonpayable",
      "type": "constructor"
    },
    {
      "inputs": [
        {
          "internalType": "address",
          "name": "",
          "type": "address"
        }
      ],
      "name": "Address",
      "outputs": [
        {
          "internalType": "string",
          "name": "",
          "type": "string"
        }
      ],
      "stateMutability": "view",
      "type": "function",
      "constant": true
    },
    {
      "inputs": [
        {
          "internalType": "string",
          "name": "",
          "type": "string"
        }
      ],
      "name": "Id",
      "outputs": [
        {
          "internalType": "address",
          "name": "",
          "type": "address"
        }
      ],
      "stateMutability": "view",
      "type": "function",
      "constant": true
    },
    {
      "inputs": [
        {
          "internalType": "address",
          "name": "_address",
          "type": "address"
        },
        {
          "internalType": "string",
          "name": "category",
          "type": "string"
        }
      ],
      "name": "addClient",
      "outputs": [],
      "stateMutability": "nonpayable",
      "type": "function"
    },
    {
      "inputs": [
        {
          "internalType": "address",
          "name": "_address",
          "type": "address"
        }
      ],
      "name": "addEmployee",
      "outputs": [],
      "stateMutability": "nonpayable",
      "type": "function"
    },
    {
      "inputs": [
        {
          "internalType": "string",
          "name": "_id",
          "type": "string"
        },
        {
          "internalType": "uint256",
          "name": "rId",
          "type": "uint256"
        }
      ],
      "name": "approveRefferedDoctor",
      "outputs": [],
      "stateMutability": "nonpayable",
      "type": "function"
    },
    {
      "inputs": [
        {
          "internalType": "string",
          "name": "a",
          "type": "string"
        },
        {
          "internalType": "string",
          "name": "b",
          "type": "string"
        }
      ],
      "name": "compareStrings",
      "outputs": [
        {
          "internalType": "bool",
          "name": "",
          "type": "bool"
        }
      ],
      "stateMutability": "pure",
      "type": "function",
      "constant": true
    },
    {
      "inputs": [
        {
          "internalType": "string",
          "name": "a",
          "type": "string"
        },
        {
          "internalType": "string",
          "name": "b",
          "type": "string"
        }
      ],
      "name": "concat",
      "outputs": [
        {
          "internalType": "string",
          "name": "",
          "type": "string"
        }
      ],
      "stateMutability": "pure",
      "type": "function",
      "constant": true
    },
    {
      "inputs": [
        {
          "internalType": "string",
          "name": "_id",
          "type": "string"
        },
        {
          "internalType": "uint256",
          "name": "_reportId",
          "type": "uint256"
        },
        {
          "internalType": "bool",
          "name": "status",
          "type": "bool"
        }
      ],
      "name": "confirmDisease",
      "outputs": [],
      "stateMutability": "nonpayable",
      "type": "function"
    },
    {
      "inputs": [],
      "name": "doctorCnt",
      "outputs": [
        {
          "internalType": "uint256",
          "name": "",
          "type": "uint256"
        }
      ],
      "stateMutability": "view",
      "type": "function",
      "constant": true
    },
    {
      "inputs": [
        {
          "internalType": "string",
          "name": "_id",
          "type": "string"
        }
      ],
      "name": "getCreditScore",
      "outputs": [
        {
          "internalType": "uint256",
          "name": "",
          "type": "uint256"
        }
      ],
      "stateMutability": "view",
      "type": "function",
      "constant": true
    },
    {
      "inputs": [
        {
          "internalType": "string",
          "name": "_id",
          "type": "string"
        },
        {
          "internalType": "uint256",
          "name": "_reportId",
          "type": "uint256"
        }
      ],
      "name": "getMedInfoHash",
      "outputs": [
        {
          "internalType": "string",
          "name": "",
          "type": "string"
        }
      ],
      "stateMutability": "view",
      "type": "function",
      "constant": true
    },
    {
      "inputs": [
        {
          "internalType": "string",
          "name": "_id",
          "type": "string"
        }
      ],
      "name": "getMedRecordCnt",
      "outputs": [
        {
          "internalType": "uint256",
          "name": "x",
          "type": "uint256"
        }
      ],
      "stateMutability": "view",
      "type": "function",
      "constant": true
    },
    {
      "inputs": [
        {
          "internalType": "string",
          "name": "_id",
          "type": "string"
        }
      ],
      "name": "getPersonalInfoHash",
      "outputs": [
        {
          "internalType": "string",
          "name": "x",
          "type": "string"
        }
      ],
      "stateMutability": "view",
      "type": "function",
      "constant": true
    },
    {
      "inputs": [],
      "name": "hospitalCnt",
      "outputs": [
        {
          "internalType": "uint256",
          "name": "",
          "type": "uint256"
        }
      ],
      "stateMutability": "view",
      "type": "function",
      "constant": true
    },
    {
      "inputs": [
        {
          "internalType": "string",
          "name": "_id",
          "type": "string"
        }
      ],
      "name": "isAllowed",
      "outputs": [
        {
          "internalType": "bool",
          "name": "",
          "type": "bool"
        }
      ],
      "stateMutability": "view",
      "type": "function",
      "constant": true
    },
    {
      "inputs": [
        {
          "internalType": "address",
          "name": "",
          "type": "address"
        }
      ],
      "name": "isDoctor",
      "outputs": [
        {
          "internalType": "bool",
          "name": "",
          "type": "bool"
        }
      ],
      "stateMutability": "view",
      "type": "function",
      "constant": true
    },
    {
      "inputs": [
        {
          "internalType": "address",
          "name": "",
          "type": "address"
        }
      ],
      "name": "isHospital",
      "outputs": [
        {
          "internalType": "bool",
          "name": "",
          "type": "bool"
        }
      ],
      "stateMutability": "view",
      "type": "function",
      "constant": true
    },
    {
      "inputs": [
        {
          "internalType": "address",
          "name": "",
          "type": "address"
        }
      ],
      "name": "isLab",
      "outputs": [
        {
          "internalType": "bool",
          "name": "",
          "type": "bool"
        }
      ],
      "stateMutability": "view",
      "type": "function",
      "constant": true
    },
    {
      "inputs": [
        {
          "internalType": "address",
          "name": "",
          "type": "address"
        }
      ],
      "name": "isOwner",
      "outputs": [
        {
          "internalType": "bool",
          "name": "",
          "type": "bool"
        }
      ],
      "stateMutability": "view",
      "type": "function",
      "constant": true
    },
    {
      "inputs": [
        {
          "internalType": "address",
          "name": "",
          "type": "address"
        }
      ],
      "name": "isPatient",
      "outputs": [
        {
          "internalType": "bool",
          "name": "",
          "type": "bool"
        }
      ],
      "stateMutability": "view",
      "type": "function",
      "constant": true
    },
    {
      "inputs": [
        {
          "internalType": "address",
          "name": "",
          "type": "address"
        }
      ],
      "name": "isTech",
      "outputs": [
        {
          "internalType": "bool",
          "name": "",
          "type": "bool"
        }
      ],
      "stateMutability": "view",
      "type": "function",
      "constant": true
    },
    {
      "inputs": [],
      "name": "labCnt",
      "outputs": [
        {
          "internalType": "uint256",
          "name": "",
          "type": "uint256"
        }
      ],
      "stateMutability": "view",
      "type": "function",
      "constant": true
    },
    {
      "inputs": [
        {
          "internalType": "string",
          "name": "_id",
          "type": "string"
        },
        {
          "internalType": "string",
          "name": "status",
          "type": "string"
        }
      ],
      "name": "modifyStatus",
      "outputs": [],
      "stateMutability": "nonpayable",
      "type": "function"
    },
    {
      "inputs": [],
      "name": "owner",
      "outputs": [
        {
          "internalType": "address",
          "name": "",
          "type": "address"
        }
      ],
      "stateMutability": "view",
      "type": "function",
      "constant": true
    },
    {
      "inputs": [],
      "name": "patientCnt",
      "outputs": [
        {
          "internalType": "uint256",
          "name": "",
          "type": "uint256"
        }
      ],
      "stateMutability": "view",
      "type": "function",
      "constant": true
    },
    {
      "inputs": [
        {
          "internalType": "address",
          "name": "",
          "type": "address"
        }
      ],
      "name": "record",
      "outputs": [
        {
          "internalType": "string",
          "name": "personalInfoHash",
          "type": "string"
        },
        {
          "internalType": "uint256",
          "name": "credit",
          "type": "uint256"
        },
        {
          "internalType": "uint256",
          "name": "totalRecord",
          "type": "uint256"
        }
      ],
      "stateMutability": "view",
      "type": "function",
      "constant": true
    },
    {
      "inputs": [
        {
          "internalType": "string",
          "name": "_id",
          "type": "string"
        },
        {
          "internalType": "string",
          "name": "_pId",
          "type": "string"
        },
        {
          "internalType": "uint256",
          "name": "rId",
          "type": "uint256"
        }
      ],
      "name": "reffer",
      "outputs": [],
      "stateMutability": "nonpayable",
      "type": "function"
    },
    {
      "inputs": [
        {
          "internalType": "string",
          "name": "_mHash",
          "type": "string"
        },
        {
          "internalType": "string",
          "name": "_id",
          "type": "string"
        }
      ],
      "name": "setMedInfoHash",
      "outputs": [],
      "stateMutability": "nonpayable",
      "type": "function"
    },
    {
      "inputs": [
        {
          "internalType": "string",
          "name": "_pinfo",
          "type": "string"
        }
      ],
      "name": "setPersonalInfoHash",
      "outputs": [],
      "stateMutability": "nonpayable",
      "type": "function"
    },
    {
      "inputs": [],
      "name": "techCnt",
      "outputs": [
        {
          "internalType": "uint256",
          "name": "",
          "type": "uint256"
        }
      ],
      "stateMutability": "view",
      "type": "function",
      "constant": true
    },
    {
      "inputs": [
        {
          "internalType": "uint256",
          "name": "_reportId",
          "type": "uint256"
        }
      ],
      "name": "totalConfirmation",
      "outputs": [
        {
          "internalType": "uint256",
          "name": "",
          "type": "uint256"
        }
      ],
      "stateMutability": "view",
      "type": "function",
      "constant": true
    },
    {
      "inputs": [
        {
          "internalType": "uint256",
          "name": "_reportId",
          "type": "uint256"
        }
      ],
      "name": "totalConsulation",
      "outputs": [
        {
          "internalType": "uint256",
          "name": "",
          "type": "uint256"
        }
      ],
      "stateMutability": "view",
      "type": "function",
      "constant": true
    },
    {
      "inputs": [
        {
          "internalType": "address",
          "name": "",
          "type": "address"
        }
      ],
      "name": "worksAt",
      "outputs": [
        {
          "internalType": "address",
          "name": "",
          "type": "address"
        }
      ],
      "stateMutability": "view",
      "type": "function",
      "constant": true
    }
  ],
  "bytecode": "0x608060405260008055600060015560006002556000600355600060045534801561002857600080fd5b5033601060006101000a81548173ffffffffffffffffffffffffffffffffffffffff021916908373ffffffffffffffffffffffffffffffffffffffff1602179055506001600a60003373ffffffffffffffffffffffffffffffffffffffff1673ffffffffffffffffffffffffffffffffffffffff16815260200190815260200160002060006101000a81548160ff0219169083151502179055506153b6806100d16000396000f3fe608060405234801561001057600080fd5b50600436106101fb5760003560e01c80638fa793901161011a578063bfa28ff1116100ad578063e292ec081161007c578063e292ec081461065e578063e4ded0111461067a578063eac8aa62146106aa578063ebfb412d146106da578063f3cb8c311461070a576101fb565b8063bfa28ff1146105b2578063cd422a3f146105e2578063ce64eac1146105fe578063e12483f81461062e576101fb565b8063ac2018e5116100e9578063ac2018e514610516578063b89895f214610534578063bdf6c67314610552578063bed34bba14610582576101fb565b80638fa793901461047e5780638fc7043f146104ae578063996440c6146104ca578063a8488687146104fa576101fb565b806349d8fea11161019257806382826ecd1161016157806382826ecd146103e457806389c19ddb146104005780638da5cb5b146104305780638f9c79ed1461044e576101fb565b806349d8fea1146103365780635e3908801461036657806360ebd69014610396578063807ad940146103b4576101fb565b80633655181a116101ce5780633655181a1461029c57806339f0b138146102b85780633eb23e69146102e85780634761658e14610306576101fb565b8063030b35cb146102005780631b9d11541461021c5780632f54bf6e1461023a5780633465d6d51461026a575b600080fd5b61021a6004803603810190610215919061413a565b610726565b005b610224610999565b60405161023191906141cb565b60405180910390f35b610254600480360381019061024f9190614244565b61099f565b604051610261919061428c565b60405180910390f35b610284600480360381019061027f9190614244565b6109bf565b60405161029393929190614326565b60405180910390f35b6102b660048036038101906102b1919061413a565b610a71565b005b6102d260048036038101906102cd9190614364565b611271565b6040516102df91906143bc565b60405180910390f35b6102f06112ba565b6040516102fd91906141cb565b60405180910390f35b610320600480360381019061031b9190614364565b6112c0565b60405161032d91906143d7565b60405180910390f35b610350600480360381019061034b9190614364565b611475565b60405161035d91906141cb565b60405180910390f35b610380600480360381019061037b9190614244565b611590565b60405161038d919061428c565b60405180910390f35b61039e6115b0565b6040516103ab91906141cb565b60405180910390f35b6103ce60048036038101906103c99190614364565b6115b6565b6040516103db919061428c565b60405180910390f35b6103fe60048036038101906103f99190614425565b611a89565b005b61041a6004803603810190610415919061413a565b611d58565b60405161042791906143d7565b60405180910390f35b610438611d84565b60405161044591906143bc565b60405180910390f35b61046860048036038101906104639190614244565b611daa565b604051610475919061428c565b60405180910390f35b61049860048036038101906104939190614425565b611dca565b6040516104a591906143d7565b60405180910390f35b6104c860048036038101906104c39190614364565b612141565b005b6104e460048036038101906104df9190614244565b612220565b6040516104f1919061428c565b60405180910390f35b610514600480360381019061050f91906144ad565b612240565b005b61051e612778565b60405161052b91906141cb565b60405180910390f35b61053c61277e565b60405161054991906141cb565b60405180910390f35b61056c60048036038101906105679190614244565b612784565b604051610579919061428c565b60405180910390f35b61059c6004803603810190610597919061413a565b6127a4565b6040516105a9919061428c565b60405180910390f35b6105cc60048036038101906105c7919061451c565b6127fd565b6040516105d991906141cb565b60405180910390f35b6105fc60048036038101906105f79190614549565b6128ef565b005b61061860048036038101906106139190614244565b612bca565b604051610625919061428c565b60405180910390f35b61064860048036038101906106439190614364565b612bea565b60405161065591906141cb565b60405180910390f35b610678600480360381019061067391906145d4565b612d16565b005b610694600480360381019061068f919061451c565b613574565b6040516106a191906141cb565b60405180910390f35b6106c460048036038101906106bf9190614244565b613666565b6040516106d191906143bc565b60405180910390f35b6106f460048036038101906106ef9190614244565b613699565b60405161070191906143d7565b60405180910390f35b610724600480360381019061071f9190614244565b613739565b005b6000600b82604051610738919061466c565b908152602001604051809103902060009054906101000a900473ffffffffffffffffffffffffffffffffffffffff169050600660008273ffffffffffffffffffffffffffffffffffffffff1673ffffffffffffffffffffffffffffffffffffffff16815260200190815260200160002060009054906101000a900460ff166107f5576040517f08c379a00000000000000000000000000000000000000000000000000000000081526004016107ec906146cf565b60405180910390fd5b6107fe826115b6565b80156108535750600960003373ffffffffffffffffffffffffffffffffffffffff1673ffffffffffffffffffffffffffffffffffffffff16815260200190815260200160002060009054906101000a900460ff165b610892576040517f08c379a00000000000000000000000000000000000000000000000000000000081526004016108899061473b565b60405180910390fd5b6000600e60008373ffffffffffffffffffffffffffffffffffffffff1673ffffffffffffffffffffffffffffffffffffffff1681526020019081526020016000206004015490506001816108e6919061478a565b905083600e60008473ffffffffffffffffffffffffffffffffffffffff1673ffffffffffffffffffffffffffffffffffffffff1681526020019081526020016000206001016000838152602001908152602001600020600001908161094b91906149ca565b5080600e60008473ffffffffffffffffffffffffffffffffffffffff1673ffffffffffffffffffffffffffffffffffffffff1681526020019081526020016000206004018190555050505050565b60015481565b600a6020528060005260406000206000915054906101000a900460ff1681565b600e6020528060005260406000206000915090508060000180546109e2906147ed565b80601f0160208091040260200160405190810160405280929190818152602001828054610a0e906147ed565b8015610a5b5780601f10610a3057610100808354040283529160200191610a5b565b820191906000526020600020905b815481529060010190602001808311610a3e57829003601f168201915b5050505050908060030154908060040154905083565b600660003373ffffffffffffffffffffffffffffffffffffffff1673ffffffffffffffffffffffffffffffffffffffff16815260200190815260200160002060009054906101000a900460ff16610afd576040517f08c379a0000000000000000000000000000000000000000000000000000000008152600401610af490614ae8565b60405180910390fd5b6000600b83604051610b0f919061466c565b908152602001604051809103902060009054906101000a900473ffffffffffffffffffffffffffffffffffffffff169050600760008273ffffffffffffffffffffffffffffffffffffffff1673ffffffffffffffffffffffffffffffffffffffff16815260200190815260200160002060009054906101000a900460ff1680610be15750600560008273ffffffffffffffffffffffffffffffffffffffff1673ffffffffffffffffffffffffffffffffffffffff16815260200190815260200160002060009054906101000a900460ff165b610c20576040517f08c379a0000000000000000000000000000000000000000000000000000000008152600401610c1790614b54565b60405180910390fd5b60008060005b600e60003373ffffffffffffffffffffffffffffffffffffffff1673ffffffffffffffffffffffffffffffffffffffff168152602001908152602001600020600201805490508110156110db578373ffffffffffffffffffffffffffffffffffffffff16600e60003373ffffffffffffffffffffffffffffffffffffffff1673ffffffffffffffffffffffffffffffffffffffff1681526020019081526020016000206002018281548110610cde57610cdd614b74565b5b9060005260206000200160009054906101000a900473ffffffffffffffffffffffffffffffffffffffff1673ffffffffffffffffffffffffffffffffffffffff16148015610d675750610d66856040518060400160405280600781526020017f617070726f7665000000000000000000000000000000000000000000000000008152506127a4565b5b15610d7557600191506110db565b8373ffffffffffffffffffffffffffffffffffffffff16600e60003373ffffffffffffffffffffffffffffffffffffffff1673ffffffffffffffffffffffffffffffffffffffff1681526020019081526020016000206002018281548110610de057610ddf614b74565b5b9060005260206000200160009054906101000a900473ffffffffffffffffffffffffffffffffffffffff1673ffffffffffffffffffffffffffffffffffffffff16148015610e695750610e68856040518060400160405280600681526020017f72656d6f766500000000000000000000000000000000000000000000000000008152506127a4565b5b156110c8576000600e60003373ffffffffffffffffffffffffffffffffffffffff1673ffffffffffffffffffffffffffffffffffffffff168152602001908152602001600020600201805490509050600e60003373ffffffffffffffffffffffffffffffffffffffff1673ffffffffffffffffffffffffffffffffffffffff168152602001908152602001600020600201600182610f079190614ba3565b81548110610f1857610f17614b74565b5b9060005260206000200160009054906101000a900473ffffffffffffffffffffffffffffffffffffffff16600e60003373ffffffffffffffffffffffffffffffffffffffff1673ffffffffffffffffffffffffffffffffffffffff1681526020019081526020016000206002018381548110610f9757610f96614b74565b5b9060005260206000200160006101000a81548173ffffffffffffffffffffffffffffffffffffffff021916908373ffffffffffffffffffffffffffffffffffffffff160217905550600e60003373ffffffffffffffffffffffffffffffffffffffff1673ffffffffffffffffffffffffffffffffffffffff168152602001908152602001600020600301600081548092919061103290614bd7565b9190505550600e60003373ffffffffffffffffffffffffffffffffffffffff1673ffffffffffffffffffffffffffffffffffffffff16815260200190815260200160002060020180548061108957611088614c00565b5b6001900381819060005260206000200160006101000a81549073ffffffffffffffffffffffffffffffffffffffff0219169055905560019350506110db565b80806110d390614c2f565b915050610c26565b50801580156111255750611124846040518060400160405280600781526020017f617070726f7665000000000000000000000000000000000000000000000000008152506127a4565b5b1561122a57600e60003373ffffffffffffffffffffffffffffffffffffffff1673ffffffffffffffffffffffffffffffffffffffff168152602001908152602001600020600201839080600181540180825580915050600190039060005260206000200160009091909190916101000a81548173ffffffffffffffffffffffffffffffffffffffff021916908373ffffffffffffffffffffffffffffffffffffffff160217905550600e60003373ffffffffffffffffffffffffffffffffffffffff1673ffffffffffffffffffffffffffffffffffffffff168152602001908152602001600020600301600081548092919061122090614c2f565b9190505550600191505b8161126a576040517f08c379a000000000000000000000000000000000000000000000000000000000815260040161126190614cc3565b60405180910390fd5b5050505050565b600b818051602081018201805184825260208301602085012081835280955050505050506000915054906101000a900473ffffffffffffffffffffffffffffffffffffffff1681565b60025481565b60606000600b836040516112d4919061466c565b908152602001604051809103902060009054906101000a900473ffffffffffffffffffffffffffffffffffffffff169050600660008273ffffffffffffffffffffffffffffffffffffffff1673ffffffffffffffffffffffffffffffffffffffff16815260200190815260200160002060009054906101000a900460ff1680156113635750611362836115b6565b5b6113a2576040517f08c379a0000000000000000000000000000000000000000000000000000000008152600401611399906146cf565b60405180910390fd5b600e60008273ffffffffffffffffffffffffffffffffffffffff1673ffffffffffffffffffffffffffffffffffffffff16815260200190815260200160002060000180546113ef906147ed565b80601f016020809104026020016040519081016040528092919081815260200182805461141b906147ed565b80156114685780601f1061143d57610100808354040283529160200191611468565b820191906000526020600020905b81548152906001019060200180831161144b57829003601f168201915b5050505050915050919050565b600080600b83604051611488919061466c565b908152602001604051809103902060009054906101000a900473ffffffffffffffffffffffffffffffffffffffff169050600660008273ffffffffffffffffffffffffffffffffffffffff1673ffffffffffffffffffffffffffffffffffffffff16815260200190815260200160002060009054906101000a900460ff16611545576040517f08c379a000000000000000000000000000000000000000000000000000000000815260040161153c906146cf565b60405180910390fd5b600e60008273ffffffffffffffffffffffffffffffffffffffff1673ffffffffffffffffffffffffffffffffffffffff16815260200190815260200160002060030154915050919050565b60076020528060005260406000206000915054906101000a900460ff1681565b60035481565b600080600b836040516115c9919061466c565b908152602001604051809103902060009054906101000a900473ffffffffffffffffffffffffffffffffffffffff169050600660008273ffffffffffffffffffffffffffffffffffffffff1673ffffffffffffffffffffffffffffffffffffffff16815260200190815260200160002060009054906101000a900460ff16611686576040517f08c379a000000000000000000000000000000000000000000000000000000000815260040161167d90614d2f565b60405180910390fd5b8073ffffffffffffffffffffffffffffffffffffffff163373ffffffffffffffffffffffffffffffffffffffff1603611731578073ffffffffffffffffffffffffffffffffffffffff163373ffffffffffffffffffffffffffffffffffffffff1614611727576040517f08c379a000000000000000000000000000000000000000000000000000000000815260040161171e90614d9b565b60405180910390fd5b6001915050611a84565b600860003373ffffffffffffffffffffffffffffffffffffffff1673ffffffffffffffffffffffffffffffffffffffff16815260200190815260200160002060009054906101000a900460ff16806117d25750600960003373ffffffffffffffffffffffffffffffffffffffff1673ffffffffffffffffffffffffffffffffffffffff16815260200190815260200160002060009054906101000a900460ff165b611811576040517f08c379a000000000000000000000000000000000000000000000000000000000815260040161180890614e07565b60405180910390fd5b6000600c60003373ffffffffffffffffffffffffffffffffffffffff1673ffffffffffffffffffffffffffffffffffffffff16815260200190815260200160002060009054906101000a900473ffffffffffffffffffffffffffffffffffffffff169050600560008273ffffffffffffffffffffffffffffffffffffffff1673ffffffffffffffffffffffffffffffffffffffff16815260200190815260200160002060009054906101000a900460ff16806119165750600760008273ffffffffffffffffffffffffffffffffffffffff1673ffffffffffffffffffffffffffffffffffffffff16815260200190815260200160002060009054906101000a900460ff165b611955576040517f08c379a000000000000000000000000000000000000000000000000000000000815260040161194c90614e73565b60405180910390fd5b60005b600e60008473ffffffffffffffffffffffffffffffffffffffff1673ffffffffffffffffffffffffffffffffffffffff16815260200190815260200160002060020180549050811015611a7c576000600e60008573ffffffffffffffffffffffffffffffffffffffff1673ffffffffffffffffffffffffffffffffffffffff16815260200190815260200160002060020182815481106119fb576119fa614b74565b5b9060005260206000200160009054906101000a900473ffffffffffffffffffffffffffffffffffffffff1690508273ffffffffffffffffffffffffffffffffffffffff168173ffffffffffffffffffffffffffffffffffffffff1603611a68576001945050505050611a84565b508080611a7490614c2f565b915050611958565b505060009150505b919050565b600660003373ffffffffffffffffffffffffffffffffffffffff1673ffffffffffffffffffffffffffffffffffffffff16815260200190815260200160002060009054906101000a900460ff16611b15576040517f08c379a0000000000000000000000000000000000000000000000000000000008152600401611b0c90614ae8565b60405180910390fd5b6000600b83604051611b27919061466c565b908152602001604051809103902060009054906101000a900473ffffffffffffffffffffffffffffffffffffffff169050600860008273ffffffffffffffffffffffffffffffffffffffff1673ffffffffffffffffffffffffffffffffffffffff16815260200190815260200160002060009054906101000a900460ff16611be4576040517f08c379a0000000000000000000000000000000000000000000000000000000008152600401611bdb90614edf565b60405180910390fd5b6001600e60003373ffffffffffffffffffffffffffffffffffffffff1673ffffffffffffffffffffffffffffffffffffffff168152602001908152602001600020600101600084815260200190815260200160002060040160008373ffffffffffffffffffffffffffffffffffffffff1673ffffffffffffffffffffffffffffffffffffffff1681526020019081526020016000205414611cba576040517f08c379a0000000000000000000000000000000000000000000000000000000008152600401611cb190614f4b565b60405180910390fd5b6002600e60003373ffffffffffffffffffffffffffffffffffffffff1673ffffffffffffffffffffffffffffffffffffffff168152602001908152602001600020600101600084815260200190815260200160002060040160008373ffffffffffffffffffffffffffffffffffffffff1673ffffffffffffffffffffffffffffffffffffffff16815260200190815260200160002081905550505050565b60608282604051602001611d6d929190614f6b565b604051602081830303815290604052905092915050565b601060009054906101000a900473ffffffffffffffffffffffffffffffffffffffff1681565b60066020528060005260406000206000915054906101000a900460ff1681565b60606000600b84604051611dde919061466c565b908152602001604051809103902060009054906101000a900473ffffffffffffffffffffffffffffffffffffffff169050600660008273ffffffffffffffffffffffffffffffffffffffff1673ffffffffffffffffffffffffffffffffffffffff16815260200190815260200160002060009054906101000a900460ff16611e9b576040517f08c379a0000000000000000000000000000000000000000000000000000000008152600401611e92906146cf565b60405180910390fd5b60056000600c60003373ffffffffffffffffffffffffffffffffffffffff1673ffffffffffffffffffffffffffffffffffffffff16815260200190815260200160002060009054906101000a900473ffffffffffffffffffffffffffffffffffffffff1673ffffffffffffffffffffffffffffffffffffffff1673ffffffffffffffffffffffffffffffffffffffff16815260200190815260200160002060009054906101000a900460ff1680611fd25750600660003373ffffffffffffffffffffffffffffffffffffffff1673ffffffffffffffffffffffffffffffffffffffff16815260200190815260200160002060009054906101000a900460ff168015611fd157508073ffffffffffffffffffffffffffffffffffffffff163373ffffffffffffffffffffffffffffffffffffffff16145b5b612011576040517f08c379a000000000000000000000000000000000000000000000000000000000815260040161200890614e73565b60405180910390fd5b61201a846115b6565b612059576040517f08c379a000000000000000000000000000000000000000000000000000000000815260040161205090614f4b565b60405180910390fd5b600e60008273ffffffffffffffffffffffffffffffffffffffff1673ffffffffffffffffffffffffffffffffffffffff168152602001908152602001600020600101600084815260200190815260200160002060000180546120ba906147ed565b80601f01602080910402602001604051908101604052809291908181526020018280546120e6906147ed565b80156121335780601f1061210857610100808354040283529160200191612133565b820191906000526020600020905b81548152906001019060200180831161211657829003601f168201915b505050505091505092915050565b600660003373ffffffffffffffffffffffffffffffffffffffff1673ffffffffffffffffffffffffffffffffffffffff16815260200190815260200160002060009054906101000a900460ff166121cd576040517f08c379a00000000000000000000000000000000000000000000000000000000081526004016121c490614ae8565b60405180910390fd5b80600e60003373ffffffffffffffffffffffffffffffffffffffff1673ffffffffffffffffffffffffffffffffffffffff168152602001908152602001600020600001908161221c91906149ca565b5050565b60086020528060005260406000206000915054906101000a900460ff1681565b600860003373ffffffffffffffffffffffffffffffffffffffff1673ffffffffffffffffffffffffffffffffffffffff16815260200190815260200160002060009054906101000a900460ff166122cc576040517f08c379a00000000000000000000000000000000000000000000000000000000081526004016122c390614fdb565b60405180910390fd5b6000600b846040516122de919061466c565b908152602001604051809103902060009054906101000a900473ffffffffffffffffffffffffffffffffffffffff169050612318846115b6565b806123b657506002600e60008373ffffffffffffffffffffffffffffffffffffffff1673ffffffffffffffffffffffffffffffffffffffff168152602001908152602001600020600101600085815260200190815260200160002060040160003373ffffffffffffffffffffffffffffffffffffffff1673ffffffffffffffffffffffffffffffffffffffff16815260200190815260200160002054145b6123f5576040517f08c379a00000000000000000000000000000000000000000000000000000000081526004016123ec90614e73565b60405180910390fd5b600660008273ffffffffffffffffffffffffffffffffffffffff1673ffffffffffffffffffffffffffffffffffffffff16815260200190815260200160002060009054906101000a900460ff16612481576040517f08c379a0000000000000000000000000000000000000000000000000000000008152600401612478906146cf565b60405180910390fd5b600e60008273ffffffffffffffffffffffffffffffffffffffff1673ffffffffffffffffffffffffffffffffffffffff168152602001908152602001600020600101600084815260200190815260200160002060030160003373ffffffffffffffffffffffffffffffffffffffff1673ffffffffffffffffffffffffffffffffffffffff16815260200190815260200160002060009054906101000a900460ff1615612562576040517f08c379a000000000000000000000000000000000000000000000000000000000815260040161255990615047565b60405180910390fd5b82600e60008373ffffffffffffffffffffffffffffffffffffffff1673ffffffffffffffffffffffffffffffffffffffff1681526020019081526020016000206004015410156125e7576040517f08c379a00000000000000000000000000000000000000000000000000000000081526004016125de906150b3565b60405180910390fd5b6001600e60008373ffffffffffffffffffffffffffffffffffffffff1673ffffffffffffffffffffffffffffffffffffffff168152602001908152602001600020600101600085815260200190815260200160002060030160003373ffffffffffffffffffffffffffffffffffffffff1673ffffffffffffffffffffffffffffffffffffffff16815260200190815260200160002060006101000a81548160ff021916908315150217905550600e60008273ffffffffffffffffffffffffffffffffffffffff1673ffffffffffffffffffffffffffffffffffffffff168152602001908152602001600020600101600084815260200190815260200160002060010160008154809291906126fa90614c2f565b9190505550811561277257600e60008273ffffffffffffffffffffffffffffffffffffffff1673ffffffffffffffffffffffffffffffffffffffff1681526020019081526020016000206001016000848152602001908152602001600020600201600081548092919061276c90614c2f565b91905055505b50505050565b60005481565b60045481565b60056020528060005260406000206000915054906101000a900460ff1681565b6000816040516020016127b7919061466c565b60405160208183030381529060405280519060200120836040516020016127de919061466c565b6040516020818303038152906040528051906020012014905092915050565b6000600660003373ffffffffffffffffffffffffffffffffffffffff1673ffffffffffffffffffffffffffffffffffffffff16815260200190815260200160002060009054906101000a900460ff1661288b576040517f08c379a0000000000000000000000000000000000000000000000000000000008152600401612882906146cf565b60405180910390fd5b6000600e60003373ffffffffffffffffffffffffffffffffffffffff1673ffffffffffffffffffffffffffffffffffffffff168152602001908152602001600020600101600084815260200190815260200160002060020154905080915050919050565b600860003373ffffffffffffffffffffffffffffffffffffffff1673ffffffffffffffffffffffffffffffffffffffff16815260200190815260200160002060009054906101000a900460ff1661297b576040517f08c379a000000000000000000000000000000000000000000000000000000000815260040161297290614fdb565b60405180910390fd5b6000600b8360405161298d919061466c565b908152602001604051809103902060009054906101000a900473ffffffffffffffffffffffffffffffffffffffff1690506000600b856040516129d0919061466c565b908152602001604051809103902060009054906101000a900473ffffffffffffffffffffffffffffffffffffffff169050600660008373ffffffffffffffffffffffffffffffffffffffff1673ffffffffffffffffffffffffffffffffffffffff16815260200190815260200160002060009054906101000a900460ff168015612aa35750600860008273ffffffffffffffffffffffffffffffffffffffff1673ffffffffffffffffffffffffffffffffffffffff16815260200190815260200160002060009054906101000a900460ff165b612ae2576040517f08c379a0000000000000000000000000000000000000000000000000000000008152600401612ad99061511f565b60405180910390fd5b612aeb846115b6565b612b2a576040517f08c379a0000000000000000000000000000000000000000000000000000000008152600401612b2190614e73565b60405180910390fd5b6001600e60008473ffffffffffffffffffffffffffffffffffffffff1673ffffffffffffffffffffffffffffffffffffffff168152602001908152602001600020600101600085815260200190815260200160002060040160008373ffffffffffffffffffffffffffffffffffffffff1673ffffffffffffffffffffffffffffffffffffffff168152602001908152602001600020819055505050505050565b60096020528060005260406000206000915054906101000a900460ff1681565b600080600b83604051612bfd919061466c565b908152602001604051809103902060009054906101000a900473ffffffffffffffffffffffffffffffffffffffff169050600660008273ffffffffffffffffffffffffffffffffffffffff1673ffffffffffffffffffffffffffffffffffffffff16815260200190815260200160002060009054906101000a900460ff168015612c8c5750612c8b836115b6565b5b612ccb576040517f08c379a0000000000000000000000000000000000000000000000000000000008152600401612cc290614d2f565b60405180910390fd5b600e60008273ffffffffffffffffffffffffffffffffffffffff1673ffffffffffffffffffffffffffffffffffffffff16815260200190815260200160002060040154915050919050565b600a60003373ffffffffffffffffffffffffffffffffffffffff1673ffffffffffffffffffffffffffffffffffffffff16815260200190815260200160002060009054906101000a900460ff16612da2576040517f08c379a0000000000000000000000000000000000000000000000000000000008152600401612d999061518b565b60405180910390fd5b81600073ffffffffffffffffffffffffffffffffffffffff168173ffffffffffffffffffffffffffffffffffffffff1603612e12576040517f08c379a0000000000000000000000000000000000000000000000000000000008152600401612e09906151f7565b60405180910390fd5b600860008273ffffffffffffffffffffffffffffffffffffffff1673ffffffffffffffffffffffffffffffffffffffff16815260200190815260200160002060009054906101000a900460ff16158015612eb65750600960008273ffffffffffffffffffffffffffffffffffffffff1673ffffffffffffffffffffffffffffffffffffffff16815260200190815260200160002060009054906101000a900460ff16155b8015612f0c5750600760008273ffffffffffffffffffffffffffffffffffffffff1673ffffffffffffffffffffffffffffffffffffffff16815260200190815260200160002060009054906101000a900460ff16155b8015612f625750600660008273ffffffffffffffffffffffffffffffffffffffff1673ffffffffffffffffffffffffffffffffffffffff16815260200190815260200160002060009054906101000a900460ff16155b8015612fb85750600a60008273ffffffffffffffffffffffffffffffffffffffff1673ffffffffffffffffffffffffffffffffffffffff16815260200190815260200160002060009054906101000a900460ff16155b801561300e5750600560008273ffffffffffffffffffffffffffffffffffffffff1673ffffffffffffffffffffffffffffffffffffffff16815260200190815260200160002060009054906101000a900460ff16155b61304d576040517f08c379a000000000000000000000000000000000000000000000000000000000815260040161304490615263565b60405180910390fd5b61308c826040518060400160405280600881526020017f686f73706974616c0000000000000000000000000000000000000000000000008152506127a4565b15613204576001600560008573ffffffffffffffffffffffffffffffffffffffff1673ffffffffffffffffffffffffffffffffffffffff16815260200190815260200160002060006101000a81548160ff021916908315150217905550600160008154809291906130fc90614c2f565b9190505550600061310e600154613e7a565b905060006131516040518060400160405280600181526020017f680000000000000000000000000000000000000000000000000000000000000081525083611d58565b905084600b82604051613164919061466c565b908152602001604051809103902060006101000a81548173ffffffffffffffffffffffffffffffffffffffff021916908373ffffffffffffffffffffffffffffffffffffffff16021790555080600d60008773ffffffffffffffffffffffffffffffffffffffff1673ffffffffffffffffffffffffffffffffffffffff16815260200190815260200160002090816131fc91906149ca565b50505061356f565b613243826040518060400160405280600381526020017f6c616200000000000000000000000000000000000000000000000000000000008152506127a4565b156133bb576001600760008573ffffffffffffffffffffffffffffffffffffffff1673ffffffffffffffffffffffffffffffffffffffff16815260200190815260200160002060006101000a81548160ff021916908315150217905550600460008154809291906132b390614c2f565b919050555060006132c5600454613e7a565b905060006133086040518060400160405280600181526020017f6c0000000000000000000000000000000000000000000000000000000000000081525083611d58565b905084600b8260405161331b919061466c565b908152602001604051809103902060006101000a81548173ffffffffffffffffffffffffffffffffffffffff021916908373ffffffffffffffffffffffffffffffffffffffff16021790555080600d60008773ffffffffffffffffffffffffffffffffffffffff1673ffffffffffffffffffffffffffffffffffffffff16815260200190815260200160002090816133b391906149ca565b50505061356e565b6133fa826040518060400160405280600781526020017f70617469656e74000000000000000000000000000000000000000000000000008152506127a4565b1561356d576001600660008573ffffffffffffffffffffffffffffffffffffffff1673ffffffffffffffffffffffffffffffffffffffff16815260200190815260200160002060006101000a81548160ff02191690831515021790555060008081548092919061346990614c2f565b9190505550600061347b600054613e7a565b905060006134be6040518060400160405280600181526020017f700000000000000000000000000000000000000000000000000000000000000081525083611d58565b905084600b826040516134d1919061466c565b908152602001604051809103902060006101000a81548173ffffffffffffffffffffffffffffffffffffffff021916908373ffffffffffffffffffffffffffffffffffffffff16021790555080600d60008773ffffffffffffffffffffffffffffffffffffffff1673ffffffffffffffffffffffffffffffffffffffff168152602001908152602001600020908161356991906149ca565b5050505b5b5b505050565b6000600660003373ffffffffffffffffffffffffffffffffffffffff1673ffffffffffffffffffffffffffffffffffffffff16815260200190815260200160002060009054906101000a900460ff16613602576040517f08c379a00000000000000000000000000000000000000000000000000000000081526004016135f9906146cf565b60405180910390fd5b6000600e60003373ffffffffffffffffffffffffffffffffffffffff1673ffffffffffffffffffffffffffffffffffffffff168152602001908152602001600020600101600084815260200190815260200160002060010154905080915050919050565b600c6020528060005260406000206000915054906101000a900473ffffffffffffffffffffffffffffffffffffffff1681565b600d60205280600052604060002060009150905080546136b8906147ed565b80601f01602080910402602001604051908101604052809291908181526020018280546136e4906147ed565b80156137315780601f1061370657610100808354040283529160200191613731565b820191906000526020600020905b81548152906001019060200180831161371457829003601f168201915b505050505081565b80600073ffffffffffffffffffffffffffffffffffffffff168173ffffffffffffffffffffffffffffffffffffffff16036137a9576040517f08c379a00000000000000000000000000000000000000000000000000000000081526004016137a0906151f7565b60405180910390fd5b600860008273ffffffffffffffffffffffffffffffffffffffff1673ffffffffffffffffffffffffffffffffffffffff16815260200190815260200160002060009054906101000a900460ff1615801561384d5750600960008273ffffffffffffffffffffffffffffffffffffffff1673ffffffffffffffffffffffffffffffffffffffff16815260200190815260200160002060009054906101000a900460ff16155b80156138a35750600760008273ffffffffffffffffffffffffffffffffffffffff1673ffffffffffffffffffffffffffffffffffffffff16815260200190815260200160002060009054906101000a900460ff16155b80156138f95750600660008273ffffffffffffffffffffffffffffffffffffffff1673ffffffffffffffffffffffffffffffffffffffff16815260200190815260200160002060009054906101000a900460ff16155b801561394f5750600a60008273ffffffffffffffffffffffffffffffffffffffff1673ffffffffffffffffffffffffffffffffffffffff16815260200190815260200160002060009054906101000a900460ff16155b80156139a55750600560008273ffffffffffffffffffffffffffffffffffffffff1673ffffffffffffffffffffffffffffffffffffffff16815260200190815260200160002060009054906101000a900460ff16155b6139e4576040517f08c379a00000000000000000000000000000000000000000000000000000000081526004016139db90615263565b60405180910390fd5b600560003373ffffffffffffffffffffffffffffffffffffffff1673ffffffffffffffffffffffffffffffffffffffff16815260200190815260200160002060009054906101000a900460ff1680613a855750600760003373ffffffffffffffffffffffffffffffffffffffff1673ffffffffffffffffffffffffffffffffffffffff16815260200190815260200160002060009054906101000a900460ff165b613ac4576040517f08c379a0000000000000000000000000000000000000000000000000000000008152600401613abb906152cf565b60405180910390fd5b600560003373ffffffffffffffffffffffffffffffffffffffff1673ffffffffffffffffffffffffffffffffffffffff16815260200190815260200160002060009054906101000a900460ff1615613c895760026000815480929190613b2990614c2f565b91905055506001600860008473ffffffffffffffffffffffffffffffffffffffff1673ffffffffffffffffffffffffffffffffffffffff16815260200190815260200160002060006101000a81548160ff0219169083151502179055506000613b93600254613e7a565b90506000613bd66040518060400160405280600181526020017f640000000000000000000000000000000000000000000000000000000000000081525083611d58565b905083600b82604051613be9919061466c565b908152602001604051809103902060006101000a81548173ffffffffffffffffffffffffffffffffffffffff021916908373ffffffffffffffffffffffffffffffffffffffff16021790555080600d60008673ffffffffffffffffffffffffffffffffffffffff1673ffffffffffffffffffffffffffffffffffffffff1681526020019081526020016000209081613c8191906149ca565b505050613df8565b6001600960008473ffffffffffffffffffffffffffffffffffffffff1673ffffffffffffffffffffffffffffffffffffffff16815260200190815260200160002060006101000a81548160ff02191690831515021790555060036000815480929190613cf490614c2f565b91905055506000613d06600354613e7a565b90506000613d496040518060400160405280600181526020017f740000000000000000000000000000000000000000000000000000000000000081525083611d58565b905083600b82604051613d5c919061466c565b908152602001604051809103902060006101000a81548173ffffffffffffffffffffffffffffffffffffffff021916908373ffffffffffffffffffffffffffffffffffffffff16021790555080600d60008673ffffffffffffffffffffffffffffffffffffffff1673ffffffffffffffffffffffffffffffffffffffff1681526020019081526020016000209081613df491906149ca565b5050505b33600c60008473ffffffffffffffffffffffffffffffffffffffff1673ffffffffffffffffffffffffffffffffffffffff16815260200190815260200160002060006101000a81548173ffffffffffffffffffffffffffffffffffffffff021916908373ffffffffffffffffffffffffffffffffffffffff1602179055505050565b606060008203613ec1576040518060400160405280600181526020017f30000000000000000000000000000000000000000000000000000000000000008152509050613fdb565b600082905060005b60008214613ef3578080613edc90614c2f565b915050600a82613eec919061531e565b9150613ec9565b60008167ffffffffffffffff811115613f0f57613f0e61400f565b5b6040519080825280601f01601f191660200182016040528015613f415781602001600182028036833780820191505090505b50905060008290508593505b60008414613fd357600a84613f62919061534f565b6030613f6e919061478a565b60f81b8282613f7c90614bd7565b92508281518110613f9057613f8f614b74565b5b60200101907effffffffffffffffffffffffffffffffffffffffffffffffffffffffffffff1916908160001a905350600a84613fcc919061531e565b9350613f4d565b819450505050505b919050565b6000604051905090565b600080fd5b600080fd5b600080fd5b600080fd5b6000601f19601f8301169050919050565b7f4e487b7100000000000000000000000000000000000000000000000000000000600052604160045260246000fd5b61404782613ffe565b810181811067ffffffffffffffff821117156140665761406561400f565b5b80604052505050565b6000614079613fe0565b9050614085828261403e565b919050565b600067ffffffffffffffff8211156140a5576140a461400f565b5b6140ae82613ffe565b9050602081019050919050565b82818337600083830152505050565b60006140dd6140d88461408a565b61406f565b9050828152602081018484840111156140f9576140f8613ff9565b5b6141048482856140bb565b509392505050565b600082601f83011261412157614120613ff4565b5b81356141318482602086016140ca565b91505092915050565b6000806040838503121561415157614150613fea565b5b600083013567ffffffffffffffff81111561416f5761416e613fef565b5b61417b8582860161410c565b925050602083013567ffffffffffffffff81111561419c5761419b613fef565b5b6141a88582860161410c565b9150509250929050565b6000819050919050565b6141c5816141b2565b82525050565b60006020820190506141e060008301846141bc565b92915050565b600073ffffffffffffffffffffffffffffffffffffffff82169050919050565b6000614211826141e6565b9050919050565b61422181614206565b811461422c57600080fd5b50565b60008135905061423e81614218565b92915050565b60006020828403121561425a57614259613fea565b5b60006142688482850161422f565b91505092915050565b60008115159050919050565b61428681614271565b82525050565b60006020820190506142a1600083018461427d565b92915050565b600081519050919050565b600082825260208201905092915050565b60005b838110156142e15780820151818401526020810190506142c6565b60008484015250505050565b60006142f8826142a7565b61430281856142b2565b93506143128185602086016142c3565b61431b81613ffe565b840191505092915050565b6000606082019050818103600083015261434081866142ed565b905061434f60208301856141bc565b61435c60408301846141bc565b949350505050565b60006020828403121561437a57614379613fea565b5b600082013567ffffffffffffffff81111561439857614397613fef565b5b6143a48482850161410c565b91505092915050565b6143b681614206565b82525050565b60006020820190506143d160008301846143ad565b92915050565b600060208201905081810360008301526143f181846142ed565b905092915050565b614402816141b2565b811461440d57600080fd5b50565b60008135905061441f816143f9565b92915050565b6000806040838503121561443c5761443b613fea565b5b600083013567ffffffffffffffff81111561445a57614459613fef565b5b6144668582860161410c565b925050602061447785828601614410565b9150509250929050565b61448a81614271565b811461449557600080fd5b50565b6000813590506144a781614481565b92915050565b6000806000606084860312156144c6576144c5613fea565b5b600084013567ffffffffffffffff8111156144e4576144e3613fef565b5b6144f08682870161410c565b935050602061450186828701614410565b925050604061451286828701614498565b9150509250925092565b60006020828403121561453257614531613fea565b5b600061454084828501614410565b91505092915050565b60008060006060848603121561456257614561613fea565b5b600084013567ffffffffffffffff8111156145805761457f613fef565b5b61458c8682870161410c565b935050602084013567ffffffffffffffff8111156145ad576145ac613fef565b5b6145b98682870161410c565b92505060406145ca86828701614410565b9150509250925092565b600080604083850312156145eb576145ea613fea565b5b60006145f98582860161422f565b925050602083013567ffffffffffffffff81111561461a57614619613fef565b5b6146268582860161410c565b9150509250929050565b600081905092915050565b6000614646826142a7565b6146508185614630565b93506146608185602086016142c3565b80840191505092915050565b6000614678828461463b565b915081905092915050565b7f6e6f7420612070617469656e7400000000000000000000000000000000000000600082015250565b60006146b9600d836142b2565b91506146c482614683565b602082019050919050565b600060208201905081810360008301526146e8816146ac565b9050919050565b7f6e6f742061206c61625465636800000000000000000000000000000000000000600082015250565b6000614725600d836142b2565b9150614730826146ef565b602082019050919050565b6000602082019050818103600083015261475481614718565b9050919050565b7f4e487b7100000000000000000000000000000000000000000000000000000000600052601160045260246000fd5b6000614795826141b2565b91506147a0836141b2565b92508282019050808211156147b8576147b761475b565b5b92915050565b7f4e487b7100000000000000000000000000000000000000000000000000000000600052602260045260246000fd5b6000600282049050600182168061480557607f821691505b602082108103614818576148176147be565b5b50919050565b60008190508160005260206000209050919050565b60006020601f8301049050919050565b600082821b905092915050565b6000600883026148807fffffffffffffffffffffffffffffffffffffffffffffffffffffffffffffffff82614843565b61488a8683614843565b95508019841693508086168417925050509392505050565b6000819050919050565b60006148c76148c26148bd846141b2565b6148a2565b6141b2565b9050919050565b6000819050919050565b6148e1836148ac565b6148f56148ed826148ce565b848454614850565b825550505050565b600090565b61490a6148fd565b6149158184846148d8565b505050565b5b818110156149395761492e600082614902565b60018101905061491b565b5050565b601f82111561497e5761494f8161481e565b61495884614833565b81016020851015614967578190505b61497b61497385614833565b83018261491a565b50505b505050565b600082821c905092915050565b60006149a160001984600802614983565b1980831691505092915050565b60006149ba8383614990565b9150826002028217905092915050565b6149d3826142a7565b67ffffffffffffffff8111156149ec576149eb61400f565b5b6149f682546147ed565b614a0182828561493d565b600060209050601f831160018114614a345760008415614a22578287015190505b614a2c85826149ae565b865550614a94565b601f198416614a428661481e565b60005b82811015614a6a57848901518255600182019150602085019450602081019050614a45565b86831015614a875784890151614a83601f891682614990565b8355505b6001600288020188555050505b505050505050565b7f73656e646572206973206e6f742070617469656e740000000000000000000000600082015250565b6000614ad26015836142b2565b9150614add82614a9c565b602082019050919050565b60006020820190508181036000830152614b0181614ac5565b9050919050565b7f4e6f7420612076616c6964206164647265737300000000000000000000000000600082015250565b6000614b3e6013836142b2565b9150614b4982614b08565b602082019050919050565b60006020820190508181036000830152614b6d81614b31565b9050919050565b7f4e487b7100000000000000000000000000000000000000000000000000000000600052603260045260246000fd5b6000614bae826141b2565b9150614bb9836141b2565b9250828203905081811115614bd157614bd061475b565b5b92915050565b6000614be2826141b2565b915060008203614bf557614bf461475b565b5b600182039050919050565b7f4e487b7100000000000000000000000000000000000000000000000000000000600052603160045260246000fd5b6000614c3a826141b2565b91507fffffffffffffffffffffffffffffffffffffffffffffffffffffffffffffffff8203614c6c57614c6b61475b565b5b600182019050919050565b7f696e76616c696420726571756573740000000000000000000000000000000000600082015250565b6000614cad600f836142b2565b9150614cb882614c77565b602082019050919050565b60006020820190508181036000830152614cdc81614ca0565b9050919050565b7f6e6f7420612070617469656e7427732069640000000000000000000000000000600082015250565b6000614d196012836142b2565b9150614d2482614ce3565b602082019050919050565b60006020820190508181036000830152614d4881614d0c565b9050919050565b7f74727920796f7572206964000000000000000000000000000000000000000000600082015250565b6000614d85600b836142b2565b9150614d9082614d4f565b602082019050919050565b60006020820190508181036000830152614db481614d78565b9050919050565b7f6e6f74206120776f726b65720000000000000000000000000000000000000000600082015250565b6000614df1600c836142b2565b9150614dfc82614dbb565b602082019050919050565b60006020820190508181036000830152614e2081614de4565b9050919050565b7f6e6f7420616c6c6f776564000000000000000000000000000000000000000000600082015250565b6000614e5d600b836142b2565b9150614e6882614e27565b602082019050919050565b60006020820190508181036000830152614e8c81614e50565b9050919050565b7f6e6f74206120646f63746f720000000000000000000000000000000000000000600082015250565b6000614ec9600c836142b2565b9150614ed482614e93565b602082019050919050565b60006020820190508181036000830152614ef881614ebc565b9050919050565b7f6e6f7420612076616c6964207265717565737400000000000000000000000000600082015250565b6000614f356013836142b2565b9150614f4082614eff565b602082019050919050565b60006020820190508181036000830152614f6481614f28565b9050919050565b6000614f77828561463b565b9150614f83828461463b565b91508190509392505050565b7f73656e646572206973206e6f74206120646f63746f7200000000000000000000600082015250565b6000614fc56016836142b2565b9150614fd082614f8f565b602082019050919050565b60006020820190508181036000830152614ff481614fb8565b9050919050565b7f6861766520636f6e6669726d656420616c726561647900000000000000000000600082015250565b60006150316016836142b2565b915061503c82614ffb565b602082019050919050565b6000602082019050818103600083015261506081615024565b9050919050565b7f696e76616c6964207265706f7274204964000000000000000000000000000000600082015250565b600061509d6011836142b2565b91506150a882615067565b602082019050919050565b600060208201905081810360008301526150cc81615090565b9050919050565b7f6e6f742076616c696420706172616d7300000000000000000000000000000000600082015250565b60006151096010836142b2565b9150615114826150d3565b602082019050919050565b60006020820190508181036000830152615138816150fc565b9050919050565b7f73656e646572206973206e6f74206f776e657200000000000000000000000000600082015250565b60006151756013836142b2565b91506151808261513f565b602082019050919050565b600060208201905081810360008301526151a481615168565b9050919050565b7f6e756c6c206164647265737320666f756e640000000000000000000000000000600082015250565b60006151e16012836142b2565b91506151ec826151ab565b602082019050919050565b60006020820190508181036000830152615210816151d4565b9050919050565b7f7072652d6578697374696e672061646472657373000000000000000000000000600082015250565b600061524d6014836142b2565b915061525882615217565b602082019050919050565b6000602082019050818103600083015261527c81615240565b9050919050565b7f756e617574686f72697a65642061636365737300000000000000000000000000600082015250565b60006152b96013836142b2565b91506152c482615283565b602082019050919050565b600060208201905081810360008301526152e8816152ac565b9050919050565b7f4e487b7100000000000000000000000000000000000000000000000000000000600052601260045260246000fd5b6000615329826141b2565b9150615334836141b2565b925082615344576153436152ef565b5b828204905092915050565b600061535a826141b2565b9150615365836141b2565b925082615375576153746152ef565b5b82820690509291505056fea2646970667358221220978c51a8744b2f805e76db6668aed8fe4396dff8b1700a7577e135f87f377fea64736f6c63430008110033",
  "immutableReferences": {},
  "source": "// SPDX-License-Identifier: MIT\r\npragma solidity ^0.8;\r\nimport \"../contracts/permission.sol\";\r\nimport \"../contracts/updateReport.sol\";\r\n\r\ncontract base is permission,updateReport{\r\n\r\n    // sets the owner of the network\r\n    string id_hash;\r\n    address public owner;\r\n\r\n    constructor(){\r\n        owner = msg.sender;\r\n        isOwner[msg.sender] = true;\r\n    }\r\n    \r\n\r\n}",
  "sourcePath": "C:\\Users\\Faisal Rahman\\Documents\\vsCodeF\\.vscode\\majorProject\\MajorProject\\contracts\\base.sol",
  "compiler": {
    "name": "solc",
    "version": "0.8.17+commit.8df45f5f.Emscripten.clang"
  },
  "schemaVersion": "3.4.11",
  "updatedAt": "2023-01-23T18:41:57.291Z",
  "networkType": "ethereum",
  "devdoc": {
    "kind": "dev",
    "methods": {},
    "version": 1
  },
  "userdoc": {
    "kind": "user",
    "methods": {},
    "version": 1
  }
}