{
  "contractName": "details",
  "abi": [
    {
      "inputs": [
        {
          "internalType": "address",
          "name": "",
          "type": "address"
        }
      ],
      "name": "Address",
      "outputs": [
        {
          "internalType": "string",
          "name": "",
          "type": "string"
        }
      ],
      "stateMutability": "view",
      "type": "function"
    },
    {
      "inputs": [
        {
          "internalType": "string",
          "name": "",
          "type": "string"
        }
      ],
      "name": "Id",
      "outputs": [
        {
          "internalType": "address",
          "name": "",
          "type": "address"
        }
      ],
      "stateMutability": "view",
      "type": "function"
    },
    {
      "inputs": [
        {
          "internalType": "address",
          "name": "_address",
          "type": "address"
        },
        {
          "internalType": "string",
          "name": "category",
          "type": "string"
        }
      ],
      "name": "addClient",
      "outputs": [],
      "stateMutability": "nonpayable",
      "type": "function"
    },
    {
      "inputs": [
        {
          "internalType": "address",
          "name": "_address",
          "type": "address"
        }
      ],
      "name": "addEmployee",
      "outputs": [],
      "stateMutability": "nonpayable",
      "type": "function"
    },
    {
      "inputs": [
        {
          "internalType": "string",
          "name": "a",
          "type": "string"
        },
        {
          "internalType": "string",
          "name": "b",
          "type": "string"
        }
      ],
      "name": "compareStrings",
      "outputs": [
        {
          "internalType": "bool",
          "name": "",
          "type": "bool"
        }
      ],
      "stateMutability": "pure",
      "type": "function"
    },
    {
      "inputs": [
        {
          "internalType": "string",
          "name": "a",
          "type": "string"
        },
        {
          "internalType": "string",
          "name": "b",
          "type": "string"
        }
      ],
      "name": "concat",
      "outputs": [
        {
          "internalType": "string",
          "name": "",
          "type": "string"
        }
      ],
      "stateMutability": "pure",
      "type": "function"
    },
    {
      "inputs": [],
      "name": "doctorCnt",
      "outputs": [
        {
          "internalType": "uint256",
          "name": "",
          "type": "uint256"
        }
      ],
      "stateMutability": "view",
      "type": "function"
    },
    {
      "inputs": [],
      "name": "hospitalCnt",
      "outputs": [
        {
          "internalType": "uint256",
          "name": "",
          "type": "uint256"
        }
      ],
      "stateMutability": "view",
      "type": "function"
    },
    {
      "inputs": [
        {
          "internalType": "address",
          "name": "",
          "type": "address"
        }
      ],
      "name": "isDoctor",
      "outputs": [
        {
          "internalType": "bool",
          "name": "",
          "type": "bool"
        }
      ],
      "stateMutability": "view",
      "type": "function"
    },
    {
      "inputs": [
        {
          "internalType": "address",
          "name": "",
          "type": "address"
        }
      ],
      "name": "isHospital",
      "outputs": [
        {
          "internalType": "bool",
          "name": "",
          "type": "bool"
        }
      ],
      "stateMutability": "view",
      "type": "function"
    },
    {
      "inputs": [
        {
          "internalType": "address",
          "name": "",
          "type": "address"
        }
      ],
      "name": "isLab",
      "outputs": [
        {
          "internalType": "bool",
          "name": "",
          "type": "bool"
        }
      ],
      "stateMutability": "view",
      "type": "function"
    },
    {
      "inputs": [
        {
          "internalType": "address",
          "name": "",
          "type": "address"
        }
      ],
      "name": "isOwner",
      "outputs": [
        {
          "internalType": "bool",
          "name": "",
          "type": "bool"
        }
      ],
      "stateMutability": "view",
      "type": "function"
    },
    {
      "inputs": [
        {
          "internalType": "address",
          "name": "",
          "type": "address"
        }
      ],
      "name": "isPatient",
      "outputs": [
        {
          "internalType": "bool",
          "name": "",
          "type": "bool"
        }
      ],
      "stateMutability": "view",
      "type": "function"
    },
    {
      "inputs": [
        {
          "internalType": "address",
          "name": "",
          "type": "address"
        }
      ],
      "name": "isTech",
      "outputs": [
        {
          "internalType": "bool",
          "name": "",
          "type": "bool"
        }
      ],
      "stateMutability": "view",
      "type": "function"
    },
    {
      "inputs": [],
      "name": "labCnt",
      "outputs": [
        {
          "internalType": "uint256",
          "name": "",
          "type": "uint256"
        }
      ],
      "stateMutability": "view",
      "type": "function"
    },
    {
      "inputs": [],
      "name": "patientCnt",
      "outputs": [
        {
          "internalType": "uint256",
          "name": "",
          "type": "uint256"
        }
      ],
      "stateMutability": "view",
      "type": "function"
    },
    {
      "inputs": [
        {
          "internalType": "address",
          "name": "",
          "type": "address"
        }
      ],
      "name": "record",
      "outputs": [
        {
          "internalType": "string",
          "name": "personalInfoHash",
          "type": "string"
        },
        {
          "internalType": "uint256",
          "name": "credit",
          "type": "uint256"
        },
        {
          "internalType": "uint256",
          "name": "totalRecord",
          "type": "uint256"
        }
      ],
      "stateMutability": "view",
      "type": "function"
    },
    {
      "inputs": [],
      "name": "techCnt",
      "outputs": [
        {
          "internalType": "uint256",
          "name": "",
          "type": "uint256"
        }
      ],
      "stateMutability": "view",
      "type": "function"
    },
    {
      "inputs": [
        {
          "internalType": "address",
          "name": "",
          "type": "address"
        }
      ],
      "name": "worksAt",
      "outputs": [
        {
          "internalType": "address",
          "name": "",
          "type": "address"
        }
      ],
      "stateMutability": "view",
      "type": "function"
    },
    {
      "inputs": [
        {
          "internalType": "string",
          "name": "_pinfo",
          "type": "string"
        }
      ],
      "name": "setPersonalInfoHash",
      "outputs": [],
      "stateMutability": "nonpayable",
      "type": "function"
    },
    {
      "inputs": [
        {
          "internalType": "string",
          "name": "_id",
          "type": "string"
        }
      ],
      "name": "getPersonalInfoHash",
      "outputs": [
        {
          "internalType": "string",
          "name": "x",
          "type": "string"
        }
      ],
      "stateMutability": "view",
      "type": "function"
    },
    {
      "inputs": [
        {
          "internalType": "string",
          "name": "_id",
          "type": "string"
        }
      ],
      "name": "getMedRecordCnt",
      "outputs": [
        {
          "internalType": "uint256",
          "name": "x",
          "type": "uint256"
        }
      ],
      "stateMutability": "view",
      "type": "function"
    },
    {
      "inputs": [
        {
          "internalType": "string",
          "name": "_id",
          "type": "string"
        }
      ],
      "name": "getCreditScore",
      "outputs": [
        {
          "internalType": "uint256",
          "name": "",
          "type": "uint256"
        }
      ],
      "stateMutability": "view",
      "type": "function"
    },
    {
      "inputs": [
        {
          "internalType": "uint256",
          "name": "_reportId",
          "type": "uint256"
        }
      ],
      "name": "totalConsulation",
      "outputs": [
        {
          "internalType": "uint256",
          "name": "",
          "type": "uint256"
        }
      ],
      "stateMutability": "view",
      "type": "function"
    },
    {
      "inputs": [
        {
          "internalType": "uint256",
          "name": "_reportId",
          "type": "uint256"
        }
      ],
      "name": "totalConfirmation",
      "outputs": [
        {
          "internalType": "uint256",
          "name": "",
          "type": "uint256"
        }
      ],
      "stateMutability": "view",
      "type": "function"
    },
    {
      "inputs": [
        {
          "internalType": "string",
          "name": "_id",
          "type": "string"
        }
      ],
      "name": "isAllowed",
      "outputs": [
        {
          "internalType": "bool",
          "name": "",
          "type": "bool"
        }
      ],
      "stateMutability": "view",
      "type": "function"
    }
  ],
  "bytecode": "0x608060405260008055600060015560006002556000600355600060045534801561002857600080fd5b506133cc806100386000396000f3fe608060405234801561001057600080fd5b506004361061018e5760003560e01c8063996440c6116100de578063ce64eac111610097578063e4ded01111610071578063e4ded01114610533578063eac8aa6214610563578063ebfb412d14610593578063f3cb8c31146105c35761018e565b8063ce64eac1146104b7578063e12483f8146104e7578063e292ec08146105175761018e565b8063996440c6146103bb578063ac2018e5146103eb578063b89895f214610409578063bdf6c67314610427578063bed34bba14610457578063bfa28ff1146104875761018e565b806349d8fea11161014b578063807ad94011610125578063807ad9401461030f57806389c19ddb1461033f5780638f9c79ed1461036f5780638fc7043f1461039f5761018e565b806349d8fea1146102915780635e390880146102c157806360ebd690146102f15761018e565b80631b9d1154146101935780632f54bf6e146101b15780633465d6d5146101e157806339f0b138146102135780633eb23e69146102435780634761658e14610261575b600080fd5b61019b6105df565b6040516101a891906125c0565b60405180910390f35b6101cb60048036038101906101c6919061264d565b6105e5565b6040516101d89190612695565b60405180910390f35b6101fb60048036038101906101f6919061264d565b610605565b60405161020a93929190612740565b60405180910390f35b61022d600480360381019061022891906128b3565b6106b7565b60405161023a919061290b565b60405180910390f35b61024b610700565b60405161025891906125c0565b60405180910390f35b61027b600480360381019061027691906128b3565b610706565b6040516102889190612926565b60405180910390f35b6102ab60048036038101906102a691906128b3565b6108bb565b6040516102b891906125c0565b60405180910390f35b6102db60048036038101906102d6919061264d565b6109d6565b6040516102e89190612695565b60405180910390f35b6102f96109f6565b60405161030691906125c0565b60405180910390f35b610329600480360381019061032491906128b3565b6109fc565b6040516103369190612695565b60405180910390f35b61035960048036038101906103549190612948565b610ecf565b6040516103669190612926565b60405180910390f35b6103896004803603810190610384919061264d565b610efb565b6040516103969190612695565b60405180910390f35b6103b960048036038101906103b491906128b3565b610f1b565b005b6103d560048036038101906103d0919061264d565b610ffa565b6040516103e29190612695565b60405180910390f35b6103f361101a565b60405161040091906125c0565b60405180910390f35b610411611020565b60405161041e91906125c0565b60405180910390f35b610441600480360381019061043c919061264d565b611026565b60405161044e9190612695565b60405180910390f35b610471600480360381019061046c9190612948565b611046565b60405161047e9190612695565b60405180910390f35b6104a1600480360381019061049c91906129ec565b61109f565b6040516104ae91906125c0565b60405180910390f35b6104d160048036038101906104cc919061264d565b611191565b6040516104de9190612695565b60405180910390f35b61050160048036038101906104fc91906128b3565b6111b1565b60405161050e91906125c0565b60405180910390f35b610531600480360381019061052c9190612a19565b6112dd565b005b61054d600480360381019061054891906129ec565b611b3b565b60405161055a91906125c0565b60405180910390f35b61057d6004803603810190610578919061264d565b611c2d565b60405161058a919061290b565b60405180910390f35b6105ad60048036038101906105a8919061264d565b611c60565b6040516105ba9190612926565b60405180910390f35b6105dd60048036038101906105d8919061264d565b611d00565b005b60015481565b600a6020528060005260406000206000915054906101000a900460ff1681565b600e60205280600052604060002060009150905080600001805461062890612aa4565b80601f016020809104026020016040519081016040528092919081815260200182805461065490612aa4565b80156106a15780601f10610676576101008083540402835291602001916106a1565b820191906000526020600020905b81548152906001019060200180831161068457829003601f168201915b5050505050908060030154908060040154905083565b600b818051602081018201805184825260208301602085012081835280955050505050506000915054906101000a900473ffffffffffffffffffffffffffffffffffffffff1681565b60025481565b60606000600b8360405161071a9190612b11565b908152602001604051809103902060009054906101000a900473ffffffffffffffffffffffffffffffffffffffff169050600660008273ffffffffffffffffffffffffffffffffffffffff1673ffffffffffffffffffffffffffffffffffffffff16815260200190815260200160002060009054906101000a900460ff1680156107a957506107a8836109fc565b5b6107e8576040517f08c379a00000000000000000000000000000000000000000000000000000000081526004016107df90612b74565b60405180910390fd5b600e60008273ffffffffffffffffffffffffffffffffffffffff1673ffffffffffffffffffffffffffffffffffffffff168152602001908152602001600020600001805461083590612aa4565b80601f016020809104026020016040519081016040528092919081815260200182805461086190612aa4565b80156108ae5780601f10610883576101008083540402835291602001916108ae565b820191906000526020600020905b81548152906001019060200180831161089157829003601f168201915b5050505050915050919050565b600080600b836040516108ce9190612b11565b908152602001604051809103902060009054906101000a900473ffffffffffffffffffffffffffffffffffffffff169050600660008273ffffffffffffffffffffffffffffffffffffffff1673ffffffffffffffffffffffffffffffffffffffff16815260200190815260200160002060009054906101000a900460ff1661098b576040517f08c379a000000000000000000000000000000000000000000000000000000000815260040161098290612b74565b60405180910390fd5b600e60008273ffffffffffffffffffffffffffffffffffffffff1673ffffffffffffffffffffffffffffffffffffffff16815260200190815260200160002060030154915050919050565b60076020528060005260406000206000915054906101000a900460ff1681565b60035481565b600080600b83604051610a0f9190612b11565b908152602001604051809103902060009054906101000a900473ffffffffffffffffffffffffffffffffffffffff169050600660008273ffffffffffffffffffffffffffffffffffffffff1673ffffffffffffffffffffffffffffffffffffffff16815260200190815260200160002060009054906101000a900460ff16610acc576040517f08c379a0000000000000000000000000000000000000000000000000000000008152600401610ac390612be0565b60405180910390fd5b8073ffffffffffffffffffffffffffffffffffffffff163373ffffffffffffffffffffffffffffffffffffffff1603610b77578073ffffffffffffffffffffffffffffffffffffffff163373ffffffffffffffffffffffffffffffffffffffff1614610b6d576040517f08c379a0000000000000000000000000000000000000000000000000000000008152600401610b6490612c4c565b60405180910390fd5b6001915050610eca565b600860003373ffffffffffffffffffffffffffffffffffffffff1673ffffffffffffffffffffffffffffffffffffffff16815260200190815260200160002060009054906101000a900460ff1680610c185750600960003373ffffffffffffffffffffffffffffffffffffffff1673ffffffffffffffffffffffffffffffffffffffff16815260200190815260200160002060009054906101000a900460ff165b610c57576040517f08c379a0000000000000000000000000000000000000000000000000000000008152600401610c4e90612cb8565b60405180910390fd5b6000600c60003373ffffffffffffffffffffffffffffffffffffffff1673ffffffffffffffffffffffffffffffffffffffff16815260200190815260200160002060009054906101000a900473ffffffffffffffffffffffffffffffffffffffff169050600560008273ffffffffffffffffffffffffffffffffffffffff1673ffffffffffffffffffffffffffffffffffffffff16815260200190815260200160002060009054906101000a900460ff1680610d5c5750600760008273ffffffffffffffffffffffffffffffffffffffff1673ffffffffffffffffffffffffffffffffffffffff16815260200190815260200160002060009054906101000a900460ff165b610d9b576040517f08c379a0000000000000000000000000000000000000000000000000000000008152600401610d9290612d24565b60405180910390fd5b60005b600e60008473ffffffffffffffffffffffffffffffffffffffff1673ffffffffffffffffffffffffffffffffffffffff16815260200190815260200160002060020180549050811015610ec2576000600e60008573ffffffffffffffffffffffffffffffffffffffff1673ffffffffffffffffffffffffffffffffffffffff1681526020019081526020016000206002018281548110610e4157610e40612d44565b5b9060005260206000200160009054906101000a900473ffffffffffffffffffffffffffffffffffffffff1690508273ffffffffffffffffffffffffffffffffffffffff168173ffffffffffffffffffffffffffffffffffffffff1603610eae576001945050505050610eca565b508080610eba90612da2565b915050610d9e565b505060009150505b919050565b60608282604051602001610ee4929190612dea565b604051602081830303815290604052905092915050565b60066020528060005260406000206000915054906101000a900460ff1681565b600660003373ffffffffffffffffffffffffffffffffffffffff1673ffffffffffffffffffffffffffffffffffffffff16815260200190815260200160002060009054906101000a900460ff16610fa7576040517f08c379a0000000000000000000000000000000000000000000000000000000008152600401610f9e90612e5a565b60405180910390fd5b80600e60003373ffffffffffffffffffffffffffffffffffffffff1673ffffffffffffffffffffffffffffffffffffffff1681526020019081526020016000206000019081610ff69190613026565b5050565b60086020528060005260406000206000915054906101000a900460ff1681565b60005481565b60045481565b60056020528060005260406000206000915054906101000a900460ff1681565b6000816040516020016110599190612b11565b60405160208183030381529060405280519060200120836040516020016110809190612b11565b6040516020818303038152906040528051906020012014905092915050565b6000600660003373ffffffffffffffffffffffffffffffffffffffff1673ffffffffffffffffffffffffffffffffffffffff16815260200190815260200160002060009054906101000a900460ff1661112d576040517f08c379a000000000000000000000000000000000000000000000000000000000815260040161112490612b74565b60405180910390fd5b6000600e60003373ffffffffffffffffffffffffffffffffffffffff1673ffffffffffffffffffffffffffffffffffffffff168152602001908152602001600020600101600084815260200190815260200160002060020154905080915050919050565b60096020528060005260406000206000915054906101000a900460ff1681565b600080600b836040516111c49190612b11565b908152602001604051809103902060009054906101000a900473ffffffffffffffffffffffffffffffffffffffff169050600660008273ffffffffffffffffffffffffffffffffffffffff1673ffffffffffffffffffffffffffffffffffffffff16815260200190815260200160002060009054906101000a900460ff1680156112535750611252836109fc565b5b611292576040517f08c379a000000000000000000000000000000000000000000000000000000000815260040161128990612be0565b60405180910390fd5b600e60008273ffffffffffffffffffffffffffffffffffffffff1673ffffffffffffffffffffffffffffffffffffffff16815260200190815260200160002060040154915050919050565b600a60003373ffffffffffffffffffffffffffffffffffffffff1673ffffffffffffffffffffffffffffffffffffffff16815260200190815260200160002060009054906101000a900460ff16611369576040517f08c379a000000000000000000000000000000000000000000000000000000000815260040161136090613144565b60405180910390fd5b81600073ffffffffffffffffffffffffffffffffffffffff168173ffffffffffffffffffffffffffffffffffffffff16036113d9576040517f08c379a00000000000000000000000000000000000000000000000000000000081526004016113d0906131b0565b60405180910390fd5b600860008273ffffffffffffffffffffffffffffffffffffffff1673ffffffffffffffffffffffffffffffffffffffff16815260200190815260200160002060009054906101000a900460ff1615801561147d5750600960008273ffffffffffffffffffffffffffffffffffffffff1673ffffffffffffffffffffffffffffffffffffffff16815260200190815260200160002060009054906101000a900460ff16155b80156114d35750600760008273ffffffffffffffffffffffffffffffffffffffff1673ffffffffffffffffffffffffffffffffffffffff16815260200190815260200160002060009054906101000a900460ff16155b80156115295750600660008273ffffffffffffffffffffffffffffffffffffffff1673ffffffffffffffffffffffffffffffffffffffff16815260200190815260200160002060009054906101000a900460ff16155b801561157f5750600a60008273ffffffffffffffffffffffffffffffffffffffff1673ffffffffffffffffffffffffffffffffffffffff16815260200190815260200160002060009054906101000a900460ff16155b80156115d55750600560008273ffffffffffffffffffffffffffffffffffffffff1673ffffffffffffffffffffffffffffffffffffffff16815260200190815260200160002060009054906101000a900460ff16155b611614576040517f08c379a000000000000000000000000000000000000000000000000000000000815260040161160b9061321c565b60405180910390fd5b611653826040518060400160405280600881526020017f686f73706974616c000000000000000000000000000000000000000000000000815250611046565b156117cb576001600560008573ffffffffffffffffffffffffffffffffffffffff1673ffffffffffffffffffffffffffffffffffffffff16815260200190815260200160002060006101000a81548160ff021916908315150217905550600160008154809291906116c390612da2565b919050555060006116d5600154612441565b905060006117186040518060400160405280600181526020017f680000000000000000000000000000000000000000000000000000000000000081525083610ecf565b905084600b8260405161172b9190612b11565b908152602001604051809103902060006101000a81548173ffffffffffffffffffffffffffffffffffffffff021916908373ffffffffffffffffffffffffffffffffffffffff16021790555080600d60008773ffffffffffffffffffffffffffffffffffffffff1673ffffffffffffffffffffffffffffffffffffffff16815260200190815260200160002090816117c39190613026565b505050611b36565b61180a826040518060400160405280600381526020017f6c61620000000000000000000000000000000000000000000000000000000000815250611046565b15611982576001600760008573ffffffffffffffffffffffffffffffffffffffff1673ffffffffffffffffffffffffffffffffffffffff16815260200190815260200160002060006101000a81548160ff0219169083151502179055506004600081548092919061187a90612da2565b9190505550600061188c600454612441565b905060006118cf6040518060400160405280600181526020017f6c0000000000000000000000000000000000000000000000000000000000000081525083610ecf565b905084600b826040516118e29190612b11565b908152602001604051809103902060006101000a81548173ffffffffffffffffffffffffffffffffffffffff021916908373ffffffffffffffffffffffffffffffffffffffff16021790555080600d60008773ffffffffffffffffffffffffffffffffffffffff1673ffffffffffffffffffffffffffffffffffffffff168152602001908152602001600020908161197a9190613026565b505050611b35565b6119c1826040518060400160405280600781526020017f70617469656e7400000000000000000000000000000000000000000000000000815250611046565b15611b34576001600660008573ffffffffffffffffffffffffffffffffffffffff1673ffffffffffffffffffffffffffffffffffffffff16815260200190815260200160002060006101000a81548160ff021916908315150217905550600080815480929190611a3090612da2565b91905055506000611a42600054612441565b90506000611a856040518060400160405280600181526020017f700000000000000000000000000000000000000000000000000000000000000081525083610ecf565b905084600b82604051611a989190612b11565b908152602001604051809103902060006101000a81548173ffffffffffffffffffffffffffffffffffffffff021916908373ffffffffffffffffffffffffffffffffffffffff16021790555080600d60008773ffffffffffffffffffffffffffffffffffffffff1673ffffffffffffffffffffffffffffffffffffffff1681526020019081526020016000209081611b309190613026565b5050505b5b5b505050565b6000600660003373ffffffffffffffffffffffffffffffffffffffff1673ffffffffffffffffffffffffffffffffffffffff16815260200190815260200160002060009054906101000a900460ff16611bc9576040517f08c379a0000000000000000000000000000000000000000000000000000000008152600401611bc090612b74565b60405180910390fd5b6000600e60003373ffffffffffffffffffffffffffffffffffffffff1673ffffffffffffffffffffffffffffffffffffffff168152602001908152602001600020600101600084815260200190815260200160002060010154905080915050919050565b600c6020528060005260406000206000915054906101000a900473ffffffffffffffffffffffffffffffffffffffff1681565b600d6020528060005260406000206000915090508054611c7f90612aa4565b80601f0160208091040260200160405190810160405280929190818152602001828054611cab90612aa4565b8015611cf85780601f10611ccd57610100808354040283529160200191611cf8565b820191906000526020600020905b815481529060010190602001808311611cdb57829003601f168201915b505050505081565b80600073ffffffffffffffffffffffffffffffffffffffff168173ffffffffffffffffffffffffffffffffffffffff1603611d70576040517f08c379a0000000000000000000000000000000000000000000000000000000008152600401611d67906131b0565b60405180910390fd5b600860008273ffffffffffffffffffffffffffffffffffffffff1673ffffffffffffffffffffffffffffffffffffffff16815260200190815260200160002060009054906101000a900460ff16158015611e145750600960008273ffffffffffffffffffffffffffffffffffffffff1673ffffffffffffffffffffffffffffffffffffffff16815260200190815260200160002060009054906101000a900460ff16155b8015611e6a5750600760008273ffffffffffffffffffffffffffffffffffffffff1673ffffffffffffffffffffffffffffffffffffffff16815260200190815260200160002060009054906101000a900460ff16155b8015611ec05750600660008273ffffffffffffffffffffffffffffffffffffffff1673ffffffffffffffffffffffffffffffffffffffff16815260200190815260200160002060009054906101000a900460ff16155b8015611f165750600a60008273ffffffffffffffffffffffffffffffffffffffff1673ffffffffffffffffffffffffffffffffffffffff16815260200190815260200160002060009054906101000a900460ff16155b8015611f6c5750600560008273ffffffffffffffffffffffffffffffffffffffff1673ffffffffffffffffffffffffffffffffffffffff16815260200190815260200160002060009054906101000a900460ff16155b611fab576040517f08c379a0000000000000000000000000000000000000000000000000000000008152600401611fa29061321c565b60405180910390fd5b600560003373ffffffffffffffffffffffffffffffffffffffff1673ffffffffffffffffffffffffffffffffffffffff16815260200190815260200160002060009054906101000a900460ff168061204c5750600760003373ffffffffffffffffffffffffffffffffffffffff1673ffffffffffffffffffffffffffffffffffffffff16815260200190815260200160002060009054906101000a900460ff165b61208b576040517f08c379a000000000000000000000000000000000000000000000000000000000815260040161208290613288565b60405180910390fd5b600560003373ffffffffffffffffffffffffffffffffffffffff1673ffffffffffffffffffffffffffffffffffffffff16815260200190815260200160002060009054906101000a900460ff161561225057600260008154809291906120f090612da2565b91905055506001600860008473ffffffffffffffffffffffffffffffffffffffff1673ffffffffffffffffffffffffffffffffffffffff16815260200190815260200160002060006101000a81548160ff021916908315150217905550600061215a600254612441565b9050600061219d6040518060400160405280600181526020017f640000000000000000000000000000000000000000000000000000000000000081525083610ecf565b905083600b826040516121b09190612b11565b908152602001604051809103902060006101000a81548173ffffffffffffffffffffffffffffffffffffffff021916908373ffffffffffffffffffffffffffffffffffffffff16021790555080600d60008673ffffffffffffffffffffffffffffffffffffffff1673ffffffffffffffffffffffffffffffffffffffff16815260200190815260200160002090816122489190613026565b5050506123bf565b6001600960008473ffffffffffffffffffffffffffffffffffffffff1673ffffffffffffffffffffffffffffffffffffffff16815260200190815260200160002060006101000a81548160ff021916908315150217905550600360008154809291906122bb90612da2565b919050555060006122cd600354612441565b905060006123106040518060400160405280600181526020017f740000000000000000000000000000000000000000000000000000000000000081525083610ecf565b905083600b826040516123239190612b11565b908152602001604051809103902060006101000a81548173ffffffffffffffffffffffffffffffffffffffff021916908373ffffffffffffffffffffffffffffffffffffffff16021790555080600d60008673ffffffffffffffffffffffffffffffffffffffff1673ffffffffffffffffffffffffffffffffffffffff16815260200190815260200160002090816123bb9190613026565b5050505b33600c60008473ffffffffffffffffffffffffffffffffffffffff1673ffffffffffffffffffffffffffffffffffffffff16815260200190815260200160002060006101000a81548173ffffffffffffffffffffffffffffffffffffffff021916908373ffffffffffffffffffffffffffffffffffffffff1602179055505050565b606060008203612488576040518060400160405280600181526020017f300000000000000000000000000000000000000000000000000000000000000081525090506125a2565b600082905060005b600082146124ba5780806124a390612da2565b915050600a826124b391906132d7565b9150612490565b60008167ffffffffffffffff8111156124d6576124d5612788565b5b6040519080825280601f01601f1916602001820160405280156125085781602001600182028036833780820191505090505b50905060008290508593505b6000841461259a57600a846125299190613308565b60306125359190613339565b60f81b82826125439061336d565b9250828151811061255757612556612d44565b5b60200101907effffffffffffffffffffffffffffffffffffffffffffffffffffffffffffff1916908160001a905350600a8461259391906132d7565b9350612514565b819450505050505b919050565b6000819050919050565b6125ba816125a7565b82525050565b60006020820190506125d560008301846125b1565b92915050565b6000604051905090565b600080fd5b600080fd5b600073ffffffffffffffffffffffffffffffffffffffff82169050919050565b600061261a826125ef565b9050919050565b61262a8161260f565b811461263557600080fd5b50565b60008135905061264781612621565b92915050565b600060208284031215612663576126626125e5565b5b600061267184828501612638565b91505092915050565b60008115159050919050565b61268f8161267a565b82525050565b60006020820190506126aa6000830184612686565b92915050565b600081519050919050565b600082825260208201905092915050565b60005b838110156126ea5780820151818401526020810190506126cf565b60008484015250505050565b6000601f19601f8301169050919050565b6000612712826126b0565b61271c81856126bb565b935061272c8185602086016126cc565b612735816126f6565b840191505092915050565b6000606082019050818103600083015261275a8186612707565b905061276960208301856125b1565b61277660408301846125b1565b949350505050565b600080fd5b600080fd5b7f4e487b7100000000000000000000000000000000000000000000000000000000600052604160045260246000fd5b6127c0826126f6565b810181811067ffffffffffffffff821117156127df576127de612788565b5b80604052505050565b60006127f26125db565b90506127fe82826127b7565b919050565b600067ffffffffffffffff82111561281e5761281d612788565b5b612827826126f6565b9050602081019050919050565b82818337600083830152505050565b600061285661285184612803565b6127e8565b90508281526020810184848401111561287257612871612783565b5b61287d848285612834565b509392505050565b600082601f83011261289a5761289961277e565b5b81356128aa848260208601612843565b91505092915050565b6000602082840312156128c9576128c86125e5565b5b600082013567ffffffffffffffff8111156128e7576128e66125ea565b5b6128f384828501612885565b91505092915050565b6129058161260f565b82525050565b600060208201905061292060008301846128fc565b92915050565b600060208201905081810360008301526129408184612707565b905092915050565b6000806040838503121561295f5761295e6125e5565b5b600083013567ffffffffffffffff81111561297d5761297c6125ea565b5b61298985828601612885565b925050602083013567ffffffffffffffff8111156129aa576129a96125ea565b5b6129b685828601612885565b9150509250929050565b6129c9816125a7565b81146129d457600080fd5b50565b6000813590506129e6816129c0565b92915050565b600060208284031215612a0257612a016125e5565b5b6000612a10848285016129d7565b91505092915050565b60008060408385031215612a3057612a2f6125e5565b5b6000612a3e85828601612638565b925050602083013567ffffffffffffffff811115612a5f57612a5e6125ea565b5b612a6b85828601612885565b9150509250929050565b7f4e487b7100000000000000000000000000000000000000000000000000000000600052602260045260246000fd5b60006002820490506001821680612abc57607f821691505b602082108103612acf57612ace612a75565b5b50919050565b600081905092915050565b6000612aeb826126b0565b612af58185612ad5565b9350612b058185602086016126cc565b80840191505092915050565b6000612b1d8284612ae0565b915081905092915050565b7f6e6f7420612070617469656e7400000000000000000000000000000000000000600082015250565b6000612b5e600d836126bb565b9150612b6982612b28565b602082019050919050565b60006020820190508181036000830152612b8d81612b51565b9050919050565b7f6e6f7420612070617469656e7427732069640000000000000000000000000000600082015250565b6000612bca6012836126bb565b9150612bd582612b94565b602082019050919050565b60006020820190508181036000830152612bf981612bbd565b9050919050565b7f74727920796f7572206964000000000000000000000000000000000000000000600082015250565b6000612c36600b836126bb565b9150612c4182612c00565b602082019050919050565b60006020820190508181036000830152612c6581612c29565b9050919050565b7f6e6f74206120776f726b65720000000000000000000000000000000000000000600082015250565b6000612ca2600c836126bb565b9150612cad82612c6c565b602082019050919050565b60006020820190508181036000830152612cd181612c95565b9050919050565b7f6e6f7420616c6c6f776564000000000000000000000000000000000000000000600082015250565b6000612d0e600b836126bb565b9150612d1982612cd8565b602082019050919050565b60006020820190508181036000830152612d3d81612d01565b9050919050565b7f4e487b7100000000000000000000000000000000000000000000000000000000600052603260045260246000fd5b7f4e487b7100000000000000000000000000000000000000000000000000000000600052601160045260246000fd5b6000612dad826125a7565b91507fffffffffffffffffffffffffffffffffffffffffffffffffffffffffffffffff8203612ddf57612dde612d73565b5b600182019050919050565b6000612df68285612ae0565b9150612e028284612ae0565b91508190509392505050565b7f73656e646572206973206e6f742070617469656e740000000000000000000000600082015250565b6000612e446015836126bb565b9150612e4f82612e0e565b602082019050919050565b60006020820190508181036000830152612e7381612e37565b9050919050565b60008190508160005260206000209050919050565b60006020601f8301049050919050565b600082821b905092915050565b600060088302612edc7fffffffffffffffffffffffffffffffffffffffffffffffffffffffffffffffff82612e9f565b612ee68683612e9f565b95508019841693508086168417925050509392505050565b6000819050919050565b6000612f23612f1e612f19846125a7565b612efe565b6125a7565b9050919050565b6000819050919050565b612f3d83612f08565b612f51612f4982612f2a565b848454612eac565b825550505050565b600090565b612f66612f59565b612f71818484612f34565b505050565b5b81811015612f9557612f8a600082612f5e565b600181019050612f77565b5050565b601f821115612fda57612fab81612e7a565b612fb484612e8f565b81016020851015612fc3578190505b612fd7612fcf85612e8f565b830182612f76565b50505b505050565b600082821c905092915050565b6000612ffd60001984600802612fdf565b1980831691505092915050565b60006130168383612fec565b9150826002028217905092915050565b61302f826126b0565b67ffffffffffffffff81111561304857613047612788565b5b6130528254612aa4565b61305d828285612f99565b600060209050601f831160018114613090576000841561307e578287015190505b613088858261300a565b8655506130f0565b601f19841661309e86612e7a565b60005b828110156130c6578489015182556001820191506020850194506020810190506130a1565b868310156130e357848901516130df601f891682612fec565b8355505b6001600288020188555050505b505050505050565b7f73656e646572206973206e6f74206f776e657200000000000000000000000000600082015250565b600061312e6013836126bb565b9150613139826130f8565b602082019050919050565b6000602082019050818103600083015261315d81613121565b9050919050565b7f6e756c6c206164647265737320666f756e640000000000000000000000000000600082015250565b600061319a6012836126bb565b91506131a582613164565b602082019050919050565b600060208201905081810360008301526131c98161318d565b9050919050565b7f7072652d6578697374696e672061646472657373000000000000000000000000600082015250565b60006132066014836126bb565b9150613211826131d0565b602082019050919050565b60006020820190508181036000830152613235816131f9565b9050919050565b7f756e617574686f72697a65642061636365737300000000000000000000000000600082015250565b60006132726013836126bb565b915061327d8261323c565b602082019050919050565b600060208201905081810360008301526132a181613265565b9050919050565b7f4e487b7100000000000000000000000000000000000000000000000000000000600052601260045260246000fd5b60006132e2826125a7565b91506132ed836125a7565b9250826132fd576132fc6132a8565b5b828204905092915050565b6000613313826125a7565b915061331e836125a7565b92508261332e5761332d6132a8565b5b828206905092915050565b6000613344826125a7565b915061334f836125a7565b925082820190508082111561336757613366612d73565b5b92915050565b6000613378826125a7565b91506000820361338b5761338a612d73565b5b60018203905091905056fea2646970667358221220d2f5ce8e5161e50d9405f914b3076e72075928c4fd4f0f4b786fc343986d433b64736f6c63430008110033",
  "immutableReferences": {},
  "source": "// SPDX-License-Identifier: MIT\r\n\r\npragma solidity ^0.8;\r\n\r\nimport \"../contracts/enroll.sol\";\r\n\r\ncontract details is enroll{\r\n\r\n    // set of functions revolving aroung patient's record\r\n\r\n    struct medicalReport{\r\n        string cid;\r\n        uint256 consultationCnt;\r\n        uint256 confirmationCnt;\r\n        mapping (address => bool)confirmedBy;\r\n        mapping (address => uint256)refferedTo; // 0 - initial state , 1 - reffered by doctor , 2 - approved by patient\r\n    }\r\n\r\n    struct patientRecord{\r\n        string personalInfoHash;\r\n        mapping(uint256=>medicalReport) medicalInfoHash;\r\n        address[] permitted;\r\n        uint256 credit;\r\n        uint256 totalRecord;\r\n    }\r\n\r\n    mapping (address => patientRecord) public record;\r\n    // mapping (address => bool) public confirmedBy;\r\n\r\n    \r\n    // patient sets their personal info\r\n    function setPersonalInfoHash(\r\n        string memory _pinfo\r\n    )public\r\n    onlyPatient\r\n    {\r\n        record[msg.sender].personalInfoHash = _pinfo;\r\n\r\n    }\r\n    // workers at approved insti can see the patient info\r\n    function getPersonalInfoHash(string memory _id)\r\n    public\r\n    view\r\n    // isAllowed(_id)\r\n    returns(string memory x)\r\n    {\r\n        address _address = Id[_id];\r\n        require(isPatient[_address] && isAllowed(_id), \"not a patient\" );\r\n        x =  record[_address].personalInfoHash;\r\n        return x;\r\n    }\r\n    // \r\n    function getMedRecordCnt(string memory _id)\r\n    public \r\n    view\r\n    returns(uint256 x){\r\n        address _address = Id[_id];\r\n        require(isPatient[_address] && isAllowed(_id),\"not a patient's id\");\r\n        x = record[_address].totalRecord;\r\n        return x;\r\n    }\r\n    \r\n    // anyone can see patient's credit score\r\n    function getCreditScore(string memory _id) public view returns(uint256){\r\n        address _patientAddress = Id[_id];\r\n        require(isPatient[_patientAddress],\"not a patient\");\r\n        return record[_patientAddress].credit;\r\n    }\r\n\r\n    \r\n    // total numbers of doctors who can given their opinion on the medical report\r\n    function totalConsulation(uint256 _reportId)public view returns(uint256){\r\n        require(isPatient[msg.sender],\"not a patient\" );\r\n        uint256 total = record[msg.sender].medicalInfoHash[_reportId].consultationCnt;\r\n        return total;\r\n    }\r\n    \r\n    // total number of doctors who agreed with the medical report \r\n    function totalConfirmation(uint256 _reportId)public view returns(uint256){\r\n        require(isPatient[msg.sender],\"not a patient\" );\r\n        uint256 positive = record[msg.sender].medicalInfoHash[_reportId].confirmationCnt;\r\n        return positive;\r\n    }\r\n\r\n    // checks if the sender works at a insti approved by the patient\r\n    function isAllowed(string memory _id )public view returns(bool){\r\n        address _patientAddress = Id[_id];\r\n        require(isPatient[_patientAddress],\"not a patient's id\");\r\n        if(msg.sender == _patientAddress){\r\n            require(msg.sender == _patientAddress,\"try your id\");\r\n            return true;\r\n        }else{\r\n            require(isDoctor[msg.sender] || isTech[msg.sender], \"not a worker\");\r\n            address _address = worksAt[msg.sender];\r\n            require(isHospital[_address] || isLab[_address] , \"not allowed\");\r\n            for(uint256 i=0; i < record[_patientAddress].permitted.length; i++){\r\n                address instiAddress = record[_patientAddress].permitted[i];\r\n                if(instiAddress == _address){\r\n                    return true;\r\n                }\r\n            }\r\n        }\r\n        return false;\r\n        \r\n    }\r\n    \r\n\r\n}",
  "sourcePath": "C:\\Users\\Faisal Rahman\\Documents\\vsCodeF\\.vscode\\majorProject\\MajorProject\\contracts\\details.sol",
  "compiler": {
    "name": "solc",
    "version": "0.8.17+commit.8df45f5f.Emscripten.clang"
  },
  "schemaVersion": "3.4.11",
  "updatedAt": "2023-01-23T18:41:44.955Z",
  "devdoc": {
    "kind": "dev",
    "methods": {},
    "version": 1
  },
  "userdoc": {
    "kind": "user",
    "methods": {},
    "version": 1
  }
}