{
  "contractName": "permission",
  "abi": [
    {
      "inputs": [
        {
          "internalType": "address",
          "name": "",
          "type": "address"
        }
      ],
      "name": "Address",
      "outputs": [
        {
          "internalType": "string",
          "name": "",
          "type": "string"
        }
      ],
      "stateMutability": "view",
      "type": "function"
    },
    {
      "inputs": [
        {
          "internalType": "string",
          "name": "",
          "type": "string"
        }
      ],
      "name": "Id",
      "outputs": [
        {
          "internalType": "address",
          "name": "",
          "type": "address"
        }
      ],
      "stateMutability": "view",
      "type": "function"
    },
    {
      "inputs": [
        {
          "internalType": "address",
          "name": "_address",
          "type": "address"
        },
        {
          "internalType": "string",
          "name": "category",
          "type": "string"
        }
      ],
      "name": "addClient",
      "outputs": [],
      "stateMutability": "nonpayable",
      "type": "function"
    },
    {
      "inputs": [
        {
          "internalType": "address",
          "name": "_address",
          "type": "address"
        }
      ],
      "name": "addEmployee",
      "outputs": [],
      "stateMutability": "nonpayable",
      "type": "function"
    },
    {
      "inputs": [
        {
          "internalType": "string",
          "name": "a",
          "type": "string"
        },
        {
          "internalType": "string",
          "name": "b",
          "type": "string"
        }
      ],
      "name": "compareStrings",
      "outputs": [
        {
          "internalType": "bool",
          "name": "",
          "type": "bool"
        }
      ],
      "stateMutability": "pure",
      "type": "function"
    },
    {
      "inputs": [
        {
          "internalType": "string",
          "name": "a",
          "type": "string"
        },
        {
          "internalType": "string",
          "name": "b",
          "type": "string"
        }
      ],
      "name": "concat",
      "outputs": [
        {
          "internalType": "string",
          "name": "",
          "type": "string"
        }
      ],
      "stateMutability": "pure",
      "type": "function"
    },
    {
      "inputs": [],
      "name": "doctorCnt",
      "outputs": [
        {
          "internalType": "uint256",
          "name": "",
          "type": "uint256"
        }
      ],
      "stateMutability": "view",
      "type": "function"
    },
    {
      "inputs": [
        {
          "internalType": "string",
          "name": "_id",
          "type": "string"
        }
      ],
      "name": "getCreditScore",
      "outputs": [
        {
          "internalType": "uint256",
          "name": "",
          "type": "uint256"
        }
      ],
      "stateMutability": "view",
      "type": "function"
    },
    {
      "inputs": [
        {
          "internalType": "string",
          "name": "_id",
          "type": "string"
        }
      ],
      "name": "getMedRecordCnt",
      "outputs": [
        {
          "internalType": "uint256",
          "name": "x",
          "type": "uint256"
        }
      ],
      "stateMutability": "view",
      "type": "function"
    },
    {
      "inputs": [
        {
          "internalType": "string",
          "name": "_id",
          "type": "string"
        }
      ],
      "name": "getPersonalInfoHash",
      "outputs": [
        {
          "internalType": "string",
          "name": "x",
          "type": "string"
        }
      ],
      "stateMutability": "view",
      "type": "function"
    },
    {
      "inputs": [],
      "name": "hospitalCnt",
      "outputs": [
        {
          "internalType": "uint256",
          "name": "",
          "type": "uint256"
        }
      ],
      "stateMutability": "view",
      "type": "function"
    },
    {
      "inputs": [
        {
          "internalType": "string",
          "name": "_id",
          "type": "string"
        }
      ],
      "name": "isAllowed",
      "outputs": [
        {
          "internalType": "bool",
          "name": "",
          "type": "bool"
        }
      ],
      "stateMutability": "view",
      "type": "function"
    },
    {
      "inputs": [
        {
          "internalType": "address",
          "name": "",
          "type": "address"
        }
      ],
      "name": "isDoctor",
      "outputs": [
        {
          "internalType": "bool",
          "name": "",
          "type": "bool"
        }
      ],
      "stateMutability": "view",
      "type": "function"
    },
    {
      "inputs": [
        {
          "internalType": "address",
          "name": "",
          "type": "address"
        }
      ],
      "name": "isHospital",
      "outputs": [
        {
          "internalType": "bool",
          "name": "",
          "type": "bool"
        }
      ],
      "stateMutability": "view",
      "type": "function"
    },
    {
      "inputs": [
        {
          "internalType": "address",
          "name": "",
          "type": "address"
        }
      ],
      "name": "isLab",
      "outputs": [
        {
          "internalType": "bool",
          "name": "",
          "type": "bool"
        }
      ],
      "stateMutability": "view",
      "type": "function"
    },
    {
      "inputs": [
        {
          "internalType": "address",
          "name": "",
          "type": "address"
        }
      ],
      "name": "isOwner",
      "outputs": [
        {
          "internalType": "bool",
          "name": "",
          "type": "bool"
        }
      ],
      "stateMutability": "view",
      "type": "function"
    },
    {
      "inputs": [
        {
          "internalType": "address",
          "name": "",
          "type": "address"
        }
      ],
      "name": "isPatient",
      "outputs": [
        {
          "internalType": "bool",
          "name": "",
          "type": "bool"
        }
      ],
      "stateMutability": "view",
      "type": "function"
    },
    {
      "inputs": [
        {
          "internalType": "address",
          "name": "",
          "type": "address"
        }
      ],
      "name": "isTech",
      "outputs": [
        {
          "internalType": "bool",
          "name": "",
          "type": "bool"
        }
      ],
      "stateMutability": "view",
      "type": "function"
    },
    {
      "inputs": [],
      "name": "labCnt",
      "outputs": [
        {
          "internalType": "uint256",
          "name": "",
          "type": "uint256"
        }
      ],
      "stateMutability": "view",
      "type": "function"
    },
    {
      "inputs": [],
      "name": "patientCnt",
      "outputs": [
        {
          "internalType": "uint256",
          "name": "",
          "type": "uint256"
        }
      ],
      "stateMutability": "view",
      "type": "function"
    },
    {
      "inputs": [
        {
          "internalType": "address",
          "name": "",
          "type": "address"
        }
      ],
      "name": "record",
      "outputs": [
        {
          "internalType": "string",
          "name": "personalInfoHash",
          "type": "string"
        },
        {
          "internalType": "uint256",
          "name": "credit",
          "type": "uint256"
        },
        {
          "internalType": "uint256",
          "name": "totalRecord",
          "type": "uint256"
        }
      ],
      "stateMutability": "view",
      "type": "function"
    },
    {
      "inputs": [
        {
          "internalType": "string",
          "name": "_pinfo",
          "type": "string"
        }
      ],
      "name": "setPersonalInfoHash",
      "outputs": [],
      "stateMutability": "nonpayable",
      "type": "function"
    },
    {
      "inputs": [],
      "name": "techCnt",
      "outputs": [
        {
          "internalType": "uint256",
          "name": "",
          "type": "uint256"
        }
      ],
      "stateMutability": "view",
      "type": "function"
    },
    {
      "inputs": [
        {
          "internalType": "uint256",
          "name": "_reportId",
          "type": "uint256"
        }
      ],
      "name": "totalConfirmation",
      "outputs": [
        {
          "internalType": "uint256",
          "name": "",
          "type": "uint256"
        }
      ],
      "stateMutability": "view",
      "type": "function"
    },
    {
      "inputs": [
        {
          "internalType": "uint256",
          "name": "_reportId",
          "type": "uint256"
        }
      ],
      "name": "totalConsulation",
      "outputs": [
        {
          "internalType": "uint256",
          "name": "",
          "type": "uint256"
        }
      ],
      "stateMutability": "view",
      "type": "function"
    },
    {
      "inputs": [
        {
          "internalType": "address",
          "name": "",
          "type": "address"
        }
      ],
      "name": "worksAt",
      "outputs": [
        {
          "internalType": "address",
          "name": "",
          "type": "address"
        }
      ],
      "stateMutability": "view",
      "type": "function"
    },
    {
      "inputs": [
        {
          "internalType": "string",
          "name": "_id",
          "type": "string"
        },
        {
          "internalType": "string",
          "name": "status",
          "type": "string"
        }
      ],
      "name": "modifyStatus",
      "outputs": [],
      "stateMutability": "nonpayable",
      "type": "function"
    },
    {
      "inputs": [
        {
          "internalType": "string",
          "name": "_id",
          "type": "string"
        },
        {
          "internalType": "string",
          "name": "_pId",
          "type": "string"
        },
        {
          "internalType": "uint256",
          "name": "rId",
          "type": "uint256"
        }
      ],
      "name": "reffer",
      "outputs": [],
      "stateMutability": "nonpayable",
      "type": "function"
    },
    {
      "inputs": [
        {
          "internalType": "string",
          "name": "_id",
          "type": "string"
        },
        {
          "internalType": "uint256",
          "name": "rId",
          "type": "uint256"
        }
      ],
      "name": "approveRefferedDoctor",
      "outputs": [],
      "stateMutability": "nonpayable",
      "type": "function"
    }
  ],
  "bytecode": "0x608060405260008055600060015560006002556000600355600060045534801561002857600080fd5b506145dd806100386000396000f3fe608060405234801561001057600080fd5b50600436106101cf5760003560e01c80638fc7043f11610104578063cd422a3f116100a2578063e4ded01111610071578063e4ded011146105c8578063eac8aa62146105f8578063ebfb412d14610628578063f3cb8c3114610658576101cf565b8063cd422a3f14610530578063ce64eac11461054c578063e12483f81461057c578063e292ec08146105ac576101cf565b8063b89895f2116100de578063b89895f214610482578063bdf6c673146104a0578063bed34bba146104d0578063bfa28ff114610500576101cf565b80638fc7043f14610418578063996440c614610434578063ac2018e514610464576101cf565b806349d8fea111610171578063807ad9401161014b578063807ad9401461036c57806382826ecd1461039c57806389c19ddb146103b85780638f9c79ed146103e8576101cf565b806349d8fea1146102ee5780635e3908801461031e57806360ebd6901461034e576101cf565b80633655181a116101ad5780633655181a1461025457806339f0b138146102705780633eb23e69146102a05780634761658e146102be576101cf565b80631b9d1154146101d45780632f54bf6e146101f25780633465d6d514610222575b600080fd5b6101dc610674565b6040516101e991906133ff565b60405180910390f35b61020c6004803603810190610207919061348c565b61067a565b60405161021991906134d4565b60405180910390f35b61023c6004803603810190610237919061348c565b61069a565b60405161024b9392919061357f565b60405180910390f35b61026e600480360381019061026991906136f2565b61074c565b005b61028a6004803603810190610285919061376a565b610f4c565b60405161029791906137c2565b60405180910390f35b6102a8610f95565b6040516102b591906133ff565b60405180910390f35b6102d860048036038101906102d3919061376a565b610f9b565b6040516102e591906137dd565b60405180910390f35b6103086004803603810190610303919061376a565b611150565b60405161031591906133ff565b60405180910390f35b6103386004803603810190610333919061348c565b61126b565b60405161034591906134d4565b60405180910390f35b61035661128b565b60405161036391906133ff565b60405180910390f35b6103866004803603810190610381919061376a565b611291565b60405161039391906134d4565b60405180910390f35b6103b660048036038101906103b1919061382b565b611764565b005b6103d260048036038101906103cd91906136f2565b611a33565b6040516103df91906137dd565b60405180910390f35b61040260048036038101906103fd919061348c565b611a5f565b60405161040f91906134d4565b60405180910390f35b610432600480360381019061042d919061376a565b611a7f565b005b61044e6004803603810190610449919061348c565b611b5e565b60405161045b91906134d4565b60405180910390f35b61046c611b7e565b60405161047991906133ff565b60405180910390f35b61048a611b84565b60405161049791906133ff565b60405180910390f35b6104ba60048036038101906104b5919061348c565b611b8a565b6040516104c791906134d4565b60405180910390f35b6104ea60048036038101906104e591906136f2565b611baa565b6040516104f791906134d4565b60405180910390f35b61051a60048036038101906105159190613887565b611c03565b60405161052791906133ff565b60405180910390f35b61054a600480360381019061054591906138b4565b611cf5565b005b6105666004803603810190610561919061348c565b611fd0565b60405161057391906134d4565b60405180910390f35b6105966004803603810190610591919061376a565b611ff0565b6040516105a391906133ff565b60405180910390f35b6105c660048036038101906105c1919061393f565b61211c565b005b6105e260048036038101906105dd9190613887565b61297a565b6040516105ef91906133ff565b60405180910390f35b610612600480360381019061060d919061348c565b612a6c565b60405161061f91906137c2565b60405180910390f35b610642600480360381019061063d919061348c565b612a9f565b60405161064f91906137dd565b60405180910390f35b610672600480360381019061066d919061348c565b612b3f565b005b60015481565b600a6020528060005260406000206000915054906101000a900460ff1681565b600e6020528060005260406000206000915090508060000180546106bd906139ca565b80601f01602080910402602001604051908101604052809291908181526020018280546106e9906139ca565b80156107365780601f1061070b57610100808354040283529160200191610736565b820191906000526020600020905b81548152906001019060200180831161071957829003601f168201915b5050505050908060030154908060040154905083565b600660003373ffffffffffffffffffffffffffffffffffffffff1673ffffffffffffffffffffffffffffffffffffffff16815260200190815260200160002060009054906101000a900460ff166107d8576040517f08c379a00000000000000000000000000000000000000000000000000000000081526004016107cf90613a47565b60405180910390fd5b6000600b836040516107ea9190613aa3565b908152602001604051809103902060009054906101000a900473ffffffffffffffffffffffffffffffffffffffff169050600760008273ffffffffffffffffffffffffffffffffffffffff1673ffffffffffffffffffffffffffffffffffffffff16815260200190815260200160002060009054906101000a900460ff16806108bc5750600560008273ffffffffffffffffffffffffffffffffffffffff1673ffffffffffffffffffffffffffffffffffffffff16815260200190815260200160002060009054906101000a900460ff165b6108fb576040517f08c379a00000000000000000000000000000000000000000000000000000000081526004016108f290613b06565b60405180910390fd5b60008060005b600e60003373ffffffffffffffffffffffffffffffffffffffff1673ffffffffffffffffffffffffffffffffffffffff16815260200190815260200160002060020180549050811015610db6578373ffffffffffffffffffffffffffffffffffffffff16600e60003373ffffffffffffffffffffffffffffffffffffffff1673ffffffffffffffffffffffffffffffffffffffff16815260200190815260200160002060020182815481106109b9576109b8613b26565b5b9060005260206000200160009054906101000a900473ffffffffffffffffffffffffffffffffffffffff1673ffffffffffffffffffffffffffffffffffffffff16148015610a425750610a41856040518060400160405280600781526020017f617070726f766500000000000000000000000000000000000000000000000000815250611baa565b5b15610a505760019150610db6565b8373ffffffffffffffffffffffffffffffffffffffff16600e60003373ffffffffffffffffffffffffffffffffffffffff1673ffffffffffffffffffffffffffffffffffffffff1681526020019081526020016000206002018281548110610abb57610aba613b26565b5b9060005260206000200160009054906101000a900473ffffffffffffffffffffffffffffffffffffffff1673ffffffffffffffffffffffffffffffffffffffff16148015610b445750610b43856040518060400160405280600681526020017f72656d6f76650000000000000000000000000000000000000000000000000000815250611baa565b5b15610da3576000600e60003373ffffffffffffffffffffffffffffffffffffffff1673ffffffffffffffffffffffffffffffffffffffff168152602001908152602001600020600201805490509050600e60003373ffffffffffffffffffffffffffffffffffffffff1673ffffffffffffffffffffffffffffffffffffffff168152602001908152602001600020600201600182610be29190613b84565b81548110610bf357610bf2613b26565b5b9060005260206000200160009054906101000a900473ffffffffffffffffffffffffffffffffffffffff16600e60003373ffffffffffffffffffffffffffffffffffffffff1673ffffffffffffffffffffffffffffffffffffffff1681526020019081526020016000206002018381548110610c7257610c71613b26565b5b9060005260206000200160006101000a81548173ffffffffffffffffffffffffffffffffffffffff021916908373ffffffffffffffffffffffffffffffffffffffff160217905550600e60003373ffffffffffffffffffffffffffffffffffffffff1673ffffffffffffffffffffffffffffffffffffffff1681526020019081526020016000206003016000815480929190610d0d90613bb8565b9190505550600e60003373ffffffffffffffffffffffffffffffffffffffff1673ffffffffffffffffffffffffffffffffffffffff168152602001908152602001600020600201805480610d6457610d63613be1565b5b6001900381819060005260206000200160006101000a81549073ffffffffffffffffffffffffffffffffffffffff021916905590556001935050610db6565b8080610dae90613c10565b915050610901565b5080158015610e005750610dff846040518060400160405280600781526020017f617070726f766500000000000000000000000000000000000000000000000000815250611baa565b5b15610f0557600e60003373ffffffffffffffffffffffffffffffffffffffff1673ffffffffffffffffffffffffffffffffffffffff168152602001908152602001600020600201839080600181540180825580915050600190039060005260206000200160009091909190916101000a81548173ffffffffffffffffffffffffffffffffffffffff021916908373ffffffffffffffffffffffffffffffffffffffff160217905550600e60003373ffffffffffffffffffffffffffffffffffffffff1673ffffffffffffffffffffffffffffffffffffffff1681526020019081526020016000206003016000815480929190610efb90613c10565b9190505550600191505b81610f45576040517f08c379a0000000000000000000000000000000000000000000000000000000008152600401610f3c90613ca4565b60405180910390fd5b5050505050565b600b818051602081018201805184825260208301602085012081835280955050505050506000915054906101000a900473ffffffffffffffffffffffffffffffffffffffff1681565b60025481565b60606000600b83604051610faf9190613aa3565b908152602001604051809103902060009054906101000a900473ffffffffffffffffffffffffffffffffffffffff169050600660008273ffffffffffffffffffffffffffffffffffffffff1673ffffffffffffffffffffffffffffffffffffffff16815260200190815260200160002060009054906101000a900460ff16801561103e575061103d83611291565b5b61107d576040517f08c379a000000000000000000000000000000000000000000000000000000000815260040161107490613d10565b60405180910390fd5b600e60008273ffffffffffffffffffffffffffffffffffffffff1673ffffffffffffffffffffffffffffffffffffffff16815260200190815260200160002060000180546110ca906139ca565b80601f01602080910402602001604051908101604052809291908181526020018280546110f6906139ca565b80156111435780601f1061111857610100808354040283529160200191611143565b820191906000526020600020905b81548152906001019060200180831161112657829003601f168201915b5050505050915050919050565b600080600b836040516111639190613aa3565b908152602001604051809103902060009054906101000a900473ffffffffffffffffffffffffffffffffffffffff169050600660008273ffffffffffffffffffffffffffffffffffffffff1673ffffffffffffffffffffffffffffffffffffffff16815260200190815260200160002060009054906101000a900460ff16611220576040517f08c379a000000000000000000000000000000000000000000000000000000000815260040161121790613d10565b60405180910390fd5b600e60008273ffffffffffffffffffffffffffffffffffffffff1673ffffffffffffffffffffffffffffffffffffffff16815260200190815260200160002060030154915050919050565b60076020528060005260406000206000915054906101000a900460ff1681565b60035481565b600080600b836040516112a49190613aa3565b908152602001604051809103902060009054906101000a900473ffffffffffffffffffffffffffffffffffffffff169050600660008273ffffffffffffffffffffffffffffffffffffffff1673ffffffffffffffffffffffffffffffffffffffff16815260200190815260200160002060009054906101000a900460ff16611361576040517f08c379a000000000000000000000000000000000000000000000000000000000815260040161135890613d7c565b60405180910390fd5b8073ffffffffffffffffffffffffffffffffffffffff163373ffffffffffffffffffffffffffffffffffffffff160361140c578073ffffffffffffffffffffffffffffffffffffffff163373ffffffffffffffffffffffffffffffffffffffff1614611402576040517f08c379a00000000000000000000000000000000000000000000000000000000081526004016113f990613de8565b60405180910390fd5b600191505061175f565b600860003373ffffffffffffffffffffffffffffffffffffffff1673ffffffffffffffffffffffffffffffffffffffff16815260200190815260200160002060009054906101000a900460ff16806114ad5750600960003373ffffffffffffffffffffffffffffffffffffffff1673ffffffffffffffffffffffffffffffffffffffff16815260200190815260200160002060009054906101000a900460ff165b6114ec576040517f08c379a00000000000000000000000000000000000000000000000000000000081526004016114e390613e54565b60405180910390fd5b6000600c60003373ffffffffffffffffffffffffffffffffffffffff1673ffffffffffffffffffffffffffffffffffffffff16815260200190815260200160002060009054906101000a900473ffffffffffffffffffffffffffffffffffffffff169050600560008273ffffffffffffffffffffffffffffffffffffffff1673ffffffffffffffffffffffffffffffffffffffff16815260200190815260200160002060009054906101000a900460ff16806115f15750600760008273ffffffffffffffffffffffffffffffffffffffff1673ffffffffffffffffffffffffffffffffffffffff16815260200190815260200160002060009054906101000a900460ff165b611630576040517f08c379a000000000000000000000000000000000000000000000000000000000815260040161162790613ec0565b60405180910390fd5b60005b600e60008473ffffffffffffffffffffffffffffffffffffffff1673ffffffffffffffffffffffffffffffffffffffff16815260200190815260200160002060020180549050811015611757576000600e60008573ffffffffffffffffffffffffffffffffffffffff1673ffffffffffffffffffffffffffffffffffffffff16815260200190815260200160002060020182815481106116d6576116d5613b26565b5b9060005260206000200160009054906101000a900473ffffffffffffffffffffffffffffffffffffffff1690508273ffffffffffffffffffffffffffffffffffffffff168173ffffffffffffffffffffffffffffffffffffffff160361174357600194505050505061175f565b50808061174f90613c10565b915050611633565b505060009150505b919050565b600660003373ffffffffffffffffffffffffffffffffffffffff1673ffffffffffffffffffffffffffffffffffffffff16815260200190815260200160002060009054906101000a900460ff166117f0576040517f08c379a00000000000000000000000000000000000000000000000000000000081526004016117e790613a47565b60405180910390fd5b6000600b836040516118029190613aa3565b908152602001604051809103902060009054906101000a900473ffffffffffffffffffffffffffffffffffffffff169050600860008273ffffffffffffffffffffffffffffffffffffffff1673ffffffffffffffffffffffffffffffffffffffff16815260200190815260200160002060009054906101000a900460ff166118bf576040517f08c379a00000000000000000000000000000000000000000000000000000000081526004016118b690613f2c565b60405180910390fd5b6001600e60003373ffffffffffffffffffffffffffffffffffffffff1673ffffffffffffffffffffffffffffffffffffffff168152602001908152602001600020600101600084815260200190815260200160002060040160008373ffffffffffffffffffffffffffffffffffffffff1673ffffffffffffffffffffffffffffffffffffffff1681526020019081526020016000205414611995576040517f08c379a000000000000000000000000000000000000000000000000000000000815260040161198c90613f98565b60405180910390fd5b6002600e60003373ffffffffffffffffffffffffffffffffffffffff1673ffffffffffffffffffffffffffffffffffffffff168152602001908152602001600020600101600084815260200190815260200160002060040160008373ffffffffffffffffffffffffffffffffffffffff1673ffffffffffffffffffffffffffffffffffffffff16815260200190815260200160002081905550505050565b60608282604051602001611a48929190613fb8565b604051602081830303815290604052905092915050565b60066020528060005260406000206000915054906101000a900460ff1681565b600660003373ffffffffffffffffffffffffffffffffffffffff1673ffffffffffffffffffffffffffffffffffffffff16815260200190815260200160002060009054906101000a900460ff16611b0b576040517f08c379a0000000000000000000000000000000000000000000000000000000008152600401611b0290613a47565b60405180910390fd5b80600e60003373ffffffffffffffffffffffffffffffffffffffff1673ffffffffffffffffffffffffffffffffffffffff1681526020019081526020016000206000019081611b5a9190614188565b5050565b60086020528060005260406000206000915054906101000a900460ff1681565b60005481565b60045481565b60056020528060005260406000206000915054906101000a900460ff1681565b600081604051602001611bbd9190613aa3565b6040516020818303038152906040528051906020012083604051602001611be49190613aa3565b6040516020818303038152906040528051906020012014905092915050565b6000600660003373ffffffffffffffffffffffffffffffffffffffff1673ffffffffffffffffffffffffffffffffffffffff16815260200190815260200160002060009054906101000a900460ff16611c91576040517f08c379a0000000000000000000000000000000000000000000000000000000008152600401611c8890613d10565b60405180910390fd5b6000600e60003373ffffffffffffffffffffffffffffffffffffffff1673ffffffffffffffffffffffffffffffffffffffff168152602001908152602001600020600101600084815260200190815260200160002060020154905080915050919050565b600860003373ffffffffffffffffffffffffffffffffffffffff1673ffffffffffffffffffffffffffffffffffffffff16815260200190815260200160002060009054906101000a900460ff16611d81576040517f08c379a0000000000000000000000000000000000000000000000000000000008152600401611d78906142a6565b60405180910390fd5b6000600b83604051611d939190613aa3565b908152602001604051809103902060009054906101000a900473ffffffffffffffffffffffffffffffffffffffff1690506000600b85604051611dd69190613aa3565b908152602001604051809103902060009054906101000a900473ffffffffffffffffffffffffffffffffffffffff169050600660008373ffffffffffffffffffffffffffffffffffffffff1673ffffffffffffffffffffffffffffffffffffffff16815260200190815260200160002060009054906101000a900460ff168015611ea95750600860008273ffffffffffffffffffffffffffffffffffffffff1673ffffffffffffffffffffffffffffffffffffffff16815260200190815260200160002060009054906101000a900460ff165b611ee8576040517f08c379a0000000000000000000000000000000000000000000000000000000008152600401611edf90614312565b60405180910390fd5b611ef184611291565b611f30576040517f08c379a0000000000000000000000000000000000000000000000000000000008152600401611f2790613ec0565b60405180910390fd5b6001600e60008473ffffffffffffffffffffffffffffffffffffffff1673ffffffffffffffffffffffffffffffffffffffff168152602001908152602001600020600101600085815260200190815260200160002060040160008373ffffffffffffffffffffffffffffffffffffffff1673ffffffffffffffffffffffffffffffffffffffff168152602001908152602001600020819055505050505050565b60096020528060005260406000206000915054906101000a900460ff1681565b600080600b836040516120039190613aa3565b908152602001604051809103902060009054906101000a900473ffffffffffffffffffffffffffffffffffffffff169050600660008273ffffffffffffffffffffffffffffffffffffffff1673ffffffffffffffffffffffffffffffffffffffff16815260200190815260200160002060009054906101000a900460ff168015612092575061209183611291565b5b6120d1576040517f08c379a00000000000000000000000000000000000000000000000000000000081526004016120c890613d7c565b60405180910390fd5b600e60008273ffffffffffffffffffffffffffffffffffffffff1673ffffffffffffffffffffffffffffffffffffffff16815260200190815260200160002060040154915050919050565b600a60003373ffffffffffffffffffffffffffffffffffffffff1673ffffffffffffffffffffffffffffffffffffffff16815260200190815260200160002060009054906101000a900460ff166121a8576040517f08c379a000000000000000000000000000000000000000000000000000000000815260040161219f9061437e565b60405180910390fd5b81600073ffffffffffffffffffffffffffffffffffffffff168173ffffffffffffffffffffffffffffffffffffffff1603612218576040517f08c379a000000000000000000000000000000000000000000000000000000000815260040161220f906143ea565b60405180910390fd5b600860008273ffffffffffffffffffffffffffffffffffffffff1673ffffffffffffffffffffffffffffffffffffffff16815260200190815260200160002060009054906101000a900460ff161580156122bc5750600960008273ffffffffffffffffffffffffffffffffffffffff1673ffffffffffffffffffffffffffffffffffffffff16815260200190815260200160002060009054906101000a900460ff16155b80156123125750600760008273ffffffffffffffffffffffffffffffffffffffff1673ffffffffffffffffffffffffffffffffffffffff16815260200190815260200160002060009054906101000a900460ff16155b80156123685750600660008273ffffffffffffffffffffffffffffffffffffffff1673ffffffffffffffffffffffffffffffffffffffff16815260200190815260200160002060009054906101000a900460ff16155b80156123be5750600a60008273ffffffffffffffffffffffffffffffffffffffff1673ffffffffffffffffffffffffffffffffffffffff16815260200190815260200160002060009054906101000a900460ff16155b80156124145750600560008273ffffffffffffffffffffffffffffffffffffffff1673ffffffffffffffffffffffffffffffffffffffff16815260200190815260200160002060009054906101000a900460ff16155b612453576040517f08c379a000000000000000000000000000000000000000000000000000000000815260040161244a90614456565b60405180910390fd5b612492826040518060400160405280600881526020017f686f73706974616c000000000000000000000000000000000000000000000000815250611baa565b1561260a576001600560008573ffffffffffffffffffffffffffffffffffffffff1673ffffffffffffffffffffffffffffffffffffffff16815260200190815260200160002060006101000a81548160ff0219169083151502179055506001600081548092919061250290613c10565b91905055506000612514600154613280565b905060006125576040518060400160405280600181526020017f680000000000000000000000000000000000000000000000000000000000000081525083611a33565b905084600b8260405161256a9190613aa3565b908152602001604051809103902060006101000a81548173ffffffffffffffffffffffffffffffffffffffff021916908373ffffffffffffffffffffffffffffffffffffffff16021790555080600d60008773ffffffffffffffffffffffffffffffffffffffff1673ffffffffffffffffffffffffffffffffffffffff16815260200190815260200160002090816126029190614188565b505050612975565b612649826040518060400160405280600381526020017f6c61620000000000000000000000000000000000000000000000000000000000815250611baa565b156127c1576001600760008573ffffffffffffffffffffffffffffffffffffffff1673ffffffffffffffffffffffffffffffffffffffff16815260200190815260200160002060006101000a81548160ff021916908315150217905550600460008154809291906126b990613c10565b919050555060006126cb600454613280565b9050600061270e6040518060400160405280600181526020017f6c0000000000000000000000000000000000000000000000000000000000000081525083611a33565b905084600b826040516127219190613aa3565b908152602001604051809103902060006101000a81548173ffffffffffffffffffffffffffffffffffffffff021916908373ffffffffffffffffffffffffffffffffffffffff16021790555080600d60008773ffffffffffffffffffffffffffffffffffffffff1673ffffffffffffffffffffffffffffffffffffffff16815260200190815260200160002090816127b99190614188565b505050612974565b612800826040518060400160405280600781526020017f70617469656e7400000000000000000000000000000000000000000000000000815250611baa565b15612973576001600660008573ffffffffffffffffffffffffffffffffffffffff1673ffffffffffffffffffffffffffffffffffffffff16815260200190815260200160002060006101000a81548160ff02191690831515021790555060008081548092919061286f90613c10565b91905055506000612881600054613280565b905060006128c46040518060400160405280600181526020017f700000000000000000000000000000000000000000000000000000000000000081525083611a33565b905084600b826040516128d79190613aa3565b908152602001604051809103902060006101000a81548173ffffffffffffffffffffffffffffffffffffffff021916908373ffffffffffffffffffffffffffffffffffffffff16021790555080600d60008773ffffffffffffffffffffffffffffffffffffffff1673ffffffffffffffffffffffffffffffffffffffff168152602001908152602001600020908161296f9190614188565b5050505b5b5b505050565b6000600660003373ffffffffffffffffffffffffffffffffffffffff1673ffffffffffffffffffffffffffffffffffffffff16815260200190815260200160002060009054906101000a900460ff16612a08576040517f08c379a00000000000000000000000000000000000000000000000000000000081526004016129ff90613d10565b60405180910390fd5b6000600e60003373ffffffffffffffffffffffffffffffffffffffff1673ffffffffffffffffffffffffffffffffffffffff168152602001908152602001600020600101600084815260200190815260200160002060010154905080915050919050565b600c6020528060005260406000206000915054906101000a900473ffffffffffffffffffffffffffffffffffffffff1681565b600d6020528060005260406000206000915090508054612abe906139ca565b80601f0160208091040260200160405190810160405280929190818152602001828054612aea906139ca565b8015612b375780601f10612b0c57610100808354040283529160200191612b37565b820191906000526020600020905b815481529060010190602001808311612b1a57829003601f168201915b505050505081565b80600073ffffffffffffffffffffffffffffffffffffffff168173ffffffffffffffffffffffffffffffffffffffff1603612baf576040517f08c379a0000000000000000000000000000000000000000000000000000000008152600401612ba6906143ea565b60405180910390fd5b600860008273ffffffffffffffffffffffffffffffffffffffff1673ffffffffffffffffffffffffffffffffffffffff16815260200190815260200160002060009054906101000a900460ff16158015612c535750600960008273ffffffffffffffffffffffffffffffffffffffff1673ffffffffffffffffffffffffffffffffffffffff16815260200190815260200160002060009054906101000a900460ff16155b8015612ca95750600760008273ffffffffffffffffffffffffffffffffffffffff1673ffffffffffffffffffffffffffffffffffffffff16815260200190815260200160002060009054906101000a900460ff16155b8015612cff5750600660008273ffffffffffffffffffffffffffffffffffffffff1673ffffffffffffffffffffffffffffffffffffffff16815260200190815260200160002060009054906101000a900460ff16155b8015612d555750600a60008273ffffffffffffffffffffffffffffffffffffffff1673ffffffffffffffffffffffffffffffffffffffff16815260200190815260200160002060009054906101000a900460ff16155b8015612dab5750600560008273ffffffffffffffffffffffffffffffffffffffff1673ffffffffffffffffffffffffffffffffffffffff16815260200190815260200160002060009054906101000a900460ff16155b612dea576040517f08c379a0000000000000000000000000000000000000000000000000000000008152600401612de190614456565b60405180910390fd5b600560003373ffffffffffffffffffffffffffffffffffffffff1673ffffffffffffffffffffffffffffffffffffffff16815260200190815260200160002060009054906101000a900460ff1680612e8b5750600760003373ffffffffffffffffffffffffffffffffffffffff1673ffffffffffffffffffffffffffffffffffffffff16815260200190815260200160002060009054906101000a900460ff165b612eca576040517f08c379a0000000000000000000000000000000000000000000000000000000008152600401612ec1906144c2565b60405180910390fd5b600560003373ffffffffffffffffffffffffffffffffffffffff1673ffffffffffffffffffffffffffffffffffffffff16815260200190815260200160002060009054906101000a900460ff161561308f5760026000815480929190612f2f90613c10565b91905055506001600860008473ffffffffffffffffffffffffffffffffffffffff1673ffffffffffffffffffffffffffffffffffffffff16815260200190815260200160002060006101000a81548160ff0219169083151502179055506000612f99600254613280565b90506000612fdc6040518060400160405280600181526020017f640000000000000000000000000000000000000000000000000000000000000081525083611a33565b905083600b82604051612fef9190613aa3565b908152602001604051809103902060006101000a81548173ffffffffffffffffffffffffffffffffffffffff021916908373ffffffffffffffffffffffffffffffffffffffff16021790555080600d60008673ffffffffffffffffffffffffffffffffffffffff1673ffffffffffffffffffffffffffffffffffffffff16815260200190815260200160002090816130879190614188565b5050506131fe565b6001600960008473ffffffffffffffffffffffffffffffffffffffff1673ffffffffffffffffffffffffffffffffffffffff16815260200190815260200160002060006101000a81548160ff021916908315150217905550600360008154809291906130fa90613c10565b9190505550600061310c600354613280565b9050600061314f6040518060400160405280600181526020017f740000000000000000000000000000000000000000000000000000000000000081525083611a33565b905083600b826040516131629190613aa3565b908152602001604051809103902060006101000a81548173ffffffffffffffffffffffffffffffffffffffff021916908373ffffffffffffffffffffffffffffffffffffffff16021790555080600d60008673ffffffffffffffffffffffffffffffffffffffff1673ffffffffffffffffffffffffffffffffffffffff16815260200190815260200160002090816131fa9190614188565b5050505b33600c60008473ffffffffffffffffffffffffffffffffffffffff1673ffffffffffffffffffffffffffffffffffffffff16815260200190815260200160002060006101000a81548173ffffffffffffffffffffffffffffffffffffffff021916908373ffffffffffffffffffffffffffffffffffffffff1602179055505050565b6060600082036132c7576040518060400160405280600181526020017f300000000000000000000000000000000000000000000000000000000000000081525090506133e1565b600082905060005b600082146132f95780806132e290613c10565b915050600a826132f29190614511565b91506132cf565b60008167ffffffffffffffff811115613315576133146135c7565b5b6040519080825280601f01601f1916602001820160405280156133475781602001600182028036833780820191505090505b50905060008290508593505b600084146133d957600a846133689190614542565b60306133749190614573565b60f81b828261338290613bb8565b9250828151811061339657613395613b26565b5b60200101907effffffffffffffffffffffffffffffffffffffffffffffffffffffffffffff1916908160001a905350600a846133d29190614511565b9350613353565b819450505050505b919050565b6000819050919050565b6133f9816133e6565b82525050565b600060208201905061341460008301846133f0565b92915050565b6000604051905090565b600080fd5b600080fd5b600073ffffffffffffffffffffffffffffffffffffffff82169050919050565b60006134598261342e565b9050919050565b6134698161344e565b811461347457600080fd5b50565b60008135905061348681613460565b92915050565b6000602082840312156134a2576134a1613424565b5b60006134b084828501613477565b91505092915050565b60008115159050919050565b6134ce816134b9565b82525050565b60006020820190506134e960008301846134c5565b92915050565b600081519050919050565b600082825260208201905092915050565b60005b8381101561352957808201518184015260208101905061350e565b60008484015250505050565b6000601f19601f8301169050919050565b6000613551826134ef565b61355b81856134fa565b935061356b81856020860161350b565b61357481613535565b840191505092915050565b600060608201905081810360008301526135998186613546565b90506135a860208301856133f0565b6135b560408301846133f0565b949350505050565b600080fd5b600080fd5b7f4e487b7100000000000000000000000000000000000000000000000000000000600052604160045260246000fd5b6135ff82613535565b810181811067ffffffffffffffff8211171561361e5761361d6135c7565b5b80604052505050565b600061363161341a565b905061363d82826135f6565b919050565b600067ffffffffffffffff82111561365d5761365c6135c7565b5b61366682613535565b9050602081019050919050565b82818337600083830152505050565b600061369561369084613642565b613627565b9050828152602081018484840111156136b1576136b06135c2565b5b6136bc848285613673565b509392505050565b600082601f8301126136d9576136d86135bd565b5b81356136e9848260208601613682565b91505092915050565b6000806040838503121561370957613708613424565b5b600083013567ffffffffffffffff81111561372757613726613429565b5b613733858286016136c4565b925050602083013567ffffffffffffffff81111561375457613753613429565b5b613760858286016136c4565b9150509250929050565b6000602082840312156137805761377f613424565b5b600082013567ffffffffffffffff81111561379e5761379d613429565b5b6137aa848285016136c4565b91505092915050565b6137bc8161344e565b82525050565b60006020820190506137d760008301846137b3565b92915050565b600060208201905081810360008301526137f78184613546565b905092915050565b613808816133e6565b811461381357600080fd5b50565b600081359050613825816137ff565b92915050565b6000806040838503121561384257613841613424565b5b600083013567ffffffffffffffff8111156138605761385f613429565b5b61386c858286016136c4565b925050602061387d85828601613816565b9150509250929050565b60006020828403121561389d5761389c613424565b5b60006138ab84828501613816565b91505092915050565b6000806000606084860312156138cd576138cc613424565b5b600084013567ffffffffffffffff8111156138eb576138ea613429565b5b6138f7868287016136c4565b935050602084013567ffffffffffffffff81111561391857613917613429565b5b613924868287016136c4565b925050604061393586828701613816565b9150509250925092565b6000806040838503121561395657613955613424565b5b600061396485828601613477565b925050602083013567ffffffffffffffff81111561398557613984613429565b5b613991858286016136c4565b9150509250929050565b7f4e487b7100000000000000000000000000000000000000000000000000000000600052602260045260246000fd5b600060028204905060018216806139e257607f821691505b6020821081036139f5576139f461399b565b5b50919050565b7f73656e646572206973206e6f742070617469656e740000000000000000000000600082015250565b6000613a316015836134fa565b9150613a3c826139fb565b602082019050919050565b60006020820190508181036000830152613a6081613a24565b9050919050565b600081905092915050565b6000613a7d826134ef565b613a878185613a67565b9350613a9781856020860161350b565b80840191505092915050565b6000613aaf8284613a72565b915081905092915050565b7f4e6f7420612076616c6964206164647265737300000000000000000000000000600082015250565b6000613af06013836134fa565b9150613afb82613aba565b602082019050919050565b60006020820190508181036000830152613b1f81613ae3565b9050919050565b7f4e487b7100000000000000000000000000000000000000000000000000000000600052603260045260246000fd5b7f4e487b7100000000000000000000000000000000000000000000000000000000600052601160045260246000fd5b6000613b8f826133e6565b9150613b9a836133e6565b9250828203905081811115613bb257613bb1613b55565b5b92915050565b6000613bc3826133e6565b915060008203613bd657613bd5613b55565b5b600182039050919050565b7f4e487b7100000000000000000000000000000000000000000000000000000000600052603160045260246000fd5b6000613c1b826133e6565b91507fffffffffffffffffffffffffffffffffffffffffffffffffffffffffffffffff8203613c4d57613c4c613b55565b5b600182019050919050565b7f696e76616c696420726571756573740000000000000000000000000000000000600082015250565b6000613c8e600f836134fa565b9150613c9982613c58565b602082019050919050565b60006020820190508181036000830152613cbd81613c81565b9050919050565b7f6e6f7420612070617469656e7400000000000000000000000000000000000000600082015250565b6000613cfa600d836134fa565b9150613d0582613cc4565b602082019050919050565b60006020820190508181036000830152613d2981613ced565b9050919050565b7f6e6f7420612070617469656e7427732069640000000000000000000000000000600082015250565b6000613d666012836134fa565b9150613d7182613d30565b602082019050919050565b60006020820190508181036000830152613d9581613d59565b9050919050565b7f74727920796f7572206964000000000000000000000000000000000000000000600082015250565b6000613dd2600b836134fa565b9150613ddd82613d9c565b602082019050919050565b60006020820190508181036000830152613e0181613dc5565b9050919050565b7f6e6f74206120776f726b65720000000000000000000000000000000000000000600082015250565b6000613e3e600c836134fa565b9150613e4982613e08565b602082019050919050565b60006020820190508181036000830152613e6d81613e31565b9050919050565b7f6e6f7420616c6c6f776564000000000000000000000000000000000000000000600082015250565b6000613eaa600b836134fa565b9150613eb582613e74565b602082019050919050565b60006020820190508181036000830152613ed981613e9d565b9050919050565b7f6e6f74206120646f63746f720000000000000000000000000000000000000000600082015250565b6000613f16600c836134fa565b9150613f2182613ee0565b602082019050919050565b60006020820190508181036000830152613f4581613f09565b9050919050565b7f6e6f7420612076616c6964207265717565737400000000000000000000000000600082015250565b6000613f826013836134fa565b9150613f8d82613f4c565b602082019050919050565b60006020820190508181036000830152613fb181613f75565b9050919050565b6000613fc48285613a72565b9150613fd08284613a72565b91508190509392505050565b60008190508160005260206000209050919050565b60006020601f8301049050919050565b600082821b905092915050565b60006008830261403e7fffffffffffffffffffffffffffffffffffffffffffffffffffffffffffffffff82614001565b6140488683614001565b95508019841693508086168417925050509392505050565b6000819050919050565b600061408561408061407b846133e6565b614060565b6133e6565b9050919050565b6000819050919050565b61409f8361406a565b6140b36140ab8261408c565b84845461400e565b825550505050565b600090565b6140c86140bb565b6140d3818484614096565b505050565b5b818110156140f7576140ec6000826140c0565b6001810190506140d9565b5050565b601f82111561413c5761410d81613fdc565b61411684613ff1565b81016020851015614125578190505b61413961413185613ff1565b8301826140d8565b50505b505050565b600082821c905092915050565b600061415f60001984600802614141565b1980831691505092915050565b6000614178838361414e565b9150826002028217905092915050565b614191826134ef565b67ffffffffffffffff8111156141aa576141a96135c7565b5b6141b482546139ca565b6141bf8282856140fb565b600060209050601f8311600181146141f257600084156141e0578287015190505b6141ea858261416c565b865550614252565b601f19841661420086613fdc565b60005b8281101561422857848901518255600182019150602085019450602081019050614203565b868310156142455784890151614241601f89168261414e565b8355505b6001600288020188555050505b505050505050565b7f73656e646572206973206e6f74206120646f63746f7200000000000000000000600082015250565b60006142906016836134fa565b915061429b8261425a565b602082019050919050565b600060208201905081810360008301526142bf81614283565b9050919050565b7f6e6f742076616c696420706172616d7300000000000000000000000000000000600082015250565b60006142fc6010836134fa565b9150614307826142c6565b602082019050919050565b6000602082019050818103600083015261432b816142ef565b9050919050565b7f73656e646572206973206e6f74206f776e657200000000000000000000000000600082015250565b60006143686013836134fa565b915061437382614332565b602082019050919050565b600060208201905081810360008301526143978161435b565b9050919050565b7f6e756c6c206164647265737320666f756e640000000000000000000000000000600082015250565b60006143d46012836134fa565b91506143df8261439e565b602082019050919050565b60006020820190508181036000830152614403816143c7565b9050919050565b7f7072652d6578697374696e672061646472657373000000000000000000000000600082015250565b60006144406014836134fa565b915061444b8261440a565b602082019050919050565b6000602082019050818103600083015261446f81614433565b9050919050565b7f756e617574686f72697a65642061636365737300000000000000000000000000600082015250565b60006144ac6013836134fa565b91506144b782614476565b602082019050919050565b600060208201905081810360008301526144db8161449f565b9050919050565b7f4e487b7100000000000000000000000000000000000000000000000000000000600052601260045260246000fd5b600061451c826133e6565b9150614527836133e6565b925082614537576145366144e2565b5b828204905092915050565b600061454d826133e6565b9150614558836133e6565b925082614568576145676144e2565b5b828206905092915050565b600061457e826133e6565b9150614589836133e6565b92508282019050808211156145a1576145a0613b55565b5b9291505056fea2646970667358221220b03d5c08219a0192a750ca34c6ffa58d555fc5ea0271ea86df7c9e01c85fa07364736f6c63430008110033",
  "immutableReferences": {},
  "source": "// SPDX-License-Identifier: MIT\r\npragma solidity ^0.8;\r\nimport \"./details.sol\";\r\n\r\ncontract permission is details{\r\n\r\n    // patient adds or removes the insti who can update their medical report\r\n    // patient adds or removes the insti who can update their medical report\r\n    function modifyStatus(string memory _id,string memory status)\r\n        public \r\n        onlyPatient  \r\n    {\r\n        address _address = Id[_id];\r\n        // checks weather the entered id of lab or hospital\r\n        require(isLab[_address] || isHospital[_address],\"Not a valid address\");\r\n        bool ok = false;\r\n        bool bad = false;\r\n        for(uint256 i=0; i<record[msg.sender].permitted.length; i++){\r\n            if(record[msg.sender].permitted[i] == _address && compareStrings(status,\"approve\")){\r\n                bad = true;\r\n                break;\r\n            }\r\n            \r\n            if(record[msg.sender].permitted[i] == _address && compareStrings(status,\"remove\")){\r\n                uint256 n = record[msg.sender].permitted.length;\r\n                record[msg.sender].permitted[i] = record[msg.sender].permitted[n-1];\r\n                record[msg.sender].credit--;\r\n                record[msg.sender].permitted.pop();\r\n                ok = true;\r\n                break;\r\n            }\r\n        }\r\n        if(!bad && compareStrings(status,\"approve\")){\r\n            record[msg.sender].permitted.push(_address);\r\n            record[msg.sender].credit++;\r\n            ok = true;\r\n        }\r\n        require(ok, \"invalid request\");\r\n        \r\n\r\n    }\r\n    function reffer(\r\n        string memory _id,\r\n        string memory _pId,\r\n        uint256 rId\r\n    )public\r\n    onlyDoctor\r\n    {\r\n        address _patientAddress = Id[_pId];\r\n        address _docAddress = Id[_id];\r\n        require(isPatient[_patientAddress] && isDoctor[_docAddress], \"not valid params\");\r\n        require(isAllowed(_pId),\"not allowed\");\r\n        record[_patientAddress].medicalInfoHash[rId].refferedTo[_docAddress] = 1;\r\n    }\r\n\r\n    function approveRefferedDoctor(\r\n        string memory _id,\r\n        uint256 rId\r\n    )public\r\n    onlyPatient\r\n    {\r\n        address _docAddress = Id[_id];\r\n        require(isDoctor[_docAddress], \"not a doctor\");\r\n        require(record[msg.sender].medicalInfoHash[rId].refferedTo[_docAddress] == 1, \"not a valid request\");\r\n        record[msg.sender].medicalInfoHash[rId].refferedTo[_docAddress] = 2; \r\n    }\r\n    \r\n\r\n    \r\n\r\n}",
  "sourcePath": "C:\\Users\\Faisal Rahman\\Documents\\vsCodeF\\.vscode\\majorProject\\MajorProject\\contracts\\permission.sol",
  "compiler": {
    "name": "solc",
    "version": "0.8.17+commit.8df45f5f.Emscripten.clang"
  },
  "schemaVersion": "3.4.11",
  "updatedAt": "2023-01-23T18:41:45.030Z",
  "devdoc": {
    "kind": "dev",
    "methods": {},
    "version": 1
  },
  "userdoc": {
    "kind": "user",
    "methods": {},
    "version": 1
  }
}