{
  "contractName": "updateReport",
  "abi": [
    {
      "inputs": [
        {
          "internalType": "address",
          "name": "",
          "type": "address"
        }
      ],
      "name": "Address",
      "outputs": [
        {
          "internalType": "string",
          "name": "",
          "type": "string"
        }
      ],
      "stateMutability": "view",
      "type": "function"
    },
    {
      "inputs": [
        {
          "internalType": "string",
          "name": "",
          "type": "string"
        }
      ],
      "name": "Id",
      "outputs": [
        {
          "internalType": "address",
          "name": "",
          "type": "address"
        }
      ],
      "stateMutability": "view",
      "type": "function"
    },
    {
      "inputs": [
        {
          "internalType": "address",
          "name": "_address",
          "type": "address"
        },
        {
          "internalType": "string",
          "name": "category",
          "type": "string"
        }
      ],
      "name": "addClient",
      "outputs": [],
      "stateMutability": "nonpayable",
      "type": "function"
    },
    {
      "inputs": [
        {
          "internalType": "address",
          "name": "_address",
          "type": "address"
        }
      ],
      "name": "addEmployee",
      "outputs": [],
      "stateMutability": "nonpayable",
      "type": "function"
    },
    {
      "inputs": [
        {
          "internalType": "string",
          "name": "a",
          "type": "string"
        },
        {
          "internalType": "string",
          "name": "b",
          "type": "string"
        }
      ],
      "name": "compareStrings",
      "outputs": [
        {
          "internalType": "bool",
          "name": "",
          "type": "bool"
        }
      ],
      "stateMutability": "pure",
      "type": "function"
    },
    {
      "inputs": [
        {
          "internalType": "string",
          "name": "a",
          "type": "string"
        },
        {
          "internalType": "string",
          "name": "b",
          "type": "string"
        }
      ],
      "name": "concat",
      "outputs": [
        {
          "internalType": "string",
          "name": "",
          "type": "string"
        }
      ],
      "stateMutability": "pure",
      "type": "function"
    },
    {
      "inputs": [],
      "name": "doctorCnt",
      "outputs": [
        {
          "internalType": "uint256",
          "name": "",
          "type": "uint256"
        }
      ],
      "stateMutability": "view",
      "type": "function"
    },
    {
      "inputs": [
        {
          "internalType": "string",
          "name": "_id",
          "type": "string"
        }
      ],
      "name": "getCreditScore",
      "outputs": [
        {
          "internalType": "uint256",
          "name": "",
          "type": "uint256"
        }
      ],
      "stateMutability": "view",
      "type": "function"
    },
    {
      "inputs": [
        {
          "internalType": "string",
          "name": "_id",
          "type": "string"
        }
      ],
      "name": "getMedRecordCnt",
      "outputs": [
        {
          "internalType": "uint256",
          "name": "x",
          "type": "uint256"
        }
      ],
      "stateMutability": "view",
      "type": "function"
    },
    {
      "inputs": [
        {
          "internalType": "string",
          "name": "_id",
          "type": "string"
        }
      ],
      "name": "getPersonalInfoHash",
      "outputs": [
        {
          "internalType": "string",
          "name": "x",
          "type": "string"
        }
      ],
      "stateMutability": "view",
      "type": "function"
    },
    {
      "inputs": [],
      "name": "hospitalCnt",
      "outputs": [
        {
          "internalType": "uint256",
          "name": "",
          "type": "uint256"
        }
      ],
      "stateMutability": "view",
      "type": "function"
    },
    {
      "inputs": [
        {
          "internalType": "string",
          "name": "_id",
          "type": "string"
        }
      ],
      "name": "isAllowed",
      "outputs": [
        {
          "internalType": "bool",
          "name": "",
          "type": "bool"
        }
      ],
      "stateMutability": "view",
      "type": "function"
    },
    {
      "inputs": [
        {
          "internalType": "address",
          "name": "",
          "type": "address"
        }
      ],
      "name": "isDoctor",
      "outputs": [
        {
          "internalType": "bool",
          "name": "",
          "type": "bool"
        }
      ],
      "stateMutability": "view",
      "type": "function"
    },
    {
      "inputs": [
        {
          "internalType": "address",
          "name": "",
          "type": "address"
        }
      ],
      "name": "isHospital",
      "outputs": [
        {
          "internalType": "bool",
          "name": "",
          "type": "bool"
        }
      ],
      "stateMutability": "view",
      "type": "function"
    },
    {
      "inputs": [
        {
          "internalType": "address",
          "name": "",
          "type": "address"
        }
      ],
      "name": "isLab",
      "outputs": [
        {
          "internalType": "bool",
          "name": "",
          "type": "bool"
        }
      ],
      "stateMutability": "view",
      "type": "function"
    },
    {
      "inputs": [
        {
          "internalType": "address",
          "name": "",
          "type": "address"
        }
      ],
      "name": "isOwner",
      "outputs": [
        {
          "internalType": "bool",
          "name": "",
          "type": "bool"
        }
      ],
      "stateMutability": "view",
      "type": "function"
    },
    {
      "inputs": [
        {
          "internalType": "address",
          "name": "",
          "type": "address"
        }
      ],
      "name": "isPatient",
      "outputs": [
        {
          "internalType": "bool",
          "name": "",
          "type": "bool"
        }
      ],
      "stateMutability": "view",
      "type": "function"
    },
    {
      "inputs": [
        {
          "internalType": "address",
          "name": "",
          "type": "address"
        }
      ],
      "name": "isTech",
      "outputs": [
        {
          "internalType": "bool",
          "name": "",
          "type": "bool"
        }
      ],
      "stateMutability": "view",
      "type": "function"
    },
    {
      "inputs": [],
      "name": "labCnt",
      "outputs": [
        {
          "internalType": "uint256",
          "name": "",
          "type": "uint256"
        }
      ],
      "stateMutability": "view",
      "type": "function"
    },
    {
      "inputs": [],
      "name": "patientCnt",
      "outputs": [
        {
          "internalType": "uint256",
          "name": "",
          "type": "uint256"
        }
      ],
      "stateMutability": "view",
      "type": "function"
    },
    {
      "inputs": [
        {
          "internalType": "address",
          "name": "",
          "type": "address"
        }
      ],
      "name": "record",
      "outputs": [
        {
          "internalType": "string",
          "name": "personalInfoHash",
          "type": "string"
        },
        {
          "internalType": "uint256",
          "name": "credit",
          "type": "uint256"
        },
        {
          "internalType": "uint256",
          "name": "totalRecord",
          "type": "uint256"
        }
      ],
      "stateMutability": "view",
      "type": "function"
    },
    {
      "inputs": [
        {
          "internalType": "string",
          "name": "_pinfo",
          "type": "string"
        }
      ],
      "name": "setPersonalInfoHash",
      "outputs": [],
      "stateMutability": "nonpayable",
      "type": "function"
    },
    {
      "inputs": [],
      "name": "techCnt",
      "outputs": [
        {
          "internalType": "uint256",
          "name": "",
          "type": "uint256"
        }
      ],
      "stateMutability": "view",
      "type": "function"
    },
    {
      "inputs": [
        {
          "internalType": "uint256",
          "name": "_reportId",
          "type": "uint256"
        }
      ],
      "name": "totalConfirmation",
      "outputs": [
        {
          "internalType": "uint256",
          "name": "",
          "type": "uint256"
        }
      ],
      "stateMutability": "view",
      "type": "function"
    },
    {
      "inputs": [
        {
          "internalType": "uint256",
          "name": "_reportId",
          "type": "uint256"
        }
      ],
      "name": "totalConsulation",
      "outputs": [
        {
          "internalType": "uint256",
          "name": "",
          "type": "uint256"
        }
      ],
      "stateMutability": "view",
      "type": "function"
    },
    {
      "inputs": [
        {
          "internalType": "address",
          "name": "",
          "type": "address"
        }
      ],
      "name": "worksAt",
      "outputs": [
        {
          "internalType": "address",
          "name": "",
          "type": "address"
        }
      ],
      "stateMutability": "view",
      "type": "function"
    },
    {
      "inputs": [
        {
          "internalType": "string",
          "name": "_mHash",
          "type": "string"
        },
        {
          "internalType": "string",
          "name": "_id",
          "type": "string"
        }
      ],
      "name": "setMedInfoHash",
      "outputs": [],
      "stateMutability": "nonpayable",
      "type": "function"
    },
    {
      "inputs": [
        {
          "internalType": "string",
          "name": "_id",
          "type": "string"
        },
        {
          "internalType": "uint256",
          "name": "_reportId",
          "type": "uint256"
        }
      ],
      "name": "getMedInfoHash",
      "outputs": [
        {
          "internalType": "string",
          "name": "",
          "type": "string"
        }
      ],
      "stateMutability": "view",
      "type": "function"
    },
    {
      "inputs": [
        {
          "internalType": "string",
          "name": "_id",
          "type": "string"
        },
        {
          "internalType": "uint256",
          "name": "_reportId",
          "type": "uint256"
        },
        {
          "internalType": "bool",
          "name": "status",
          "type": "bool"
        }
      ],
      "name": "confirmDisease",
      "outputs": [],
      "stateMutability": "nonpayable",
      "type": "function"
    }
  ],
  "bytecode": "0x608060405260008055600060015560006002556000600355600060045534801561002857600080fd5b506142aa806100386000396000f3fe608060405234801561001057600080fd5b50600436106101cf5760003560e01c80638fc7043f11610104578063bfa28ff1116100a2578063e4ded01111610071578063e4ded011146105dc578063eac8aa621461060c578063ebfb412d1461063c578063f3cb8c311461066c576101cf565b8063bfa28ff114610530578063ce64eac114610560578063e12483f814610590578063e292ec08146105c0576101cf565b8063ac2018e5116100de578063ac2018e514610494578063b89895f2146104b2578063bdf6c673146104d0578063bed34bba14610500576101cf565b80638fc7043f1461042c578063996440c614610448578063a848868714610478576101cf565b806349d8fea111610171578063807ad9401161014b578063807ad9401461036c57806389c19ddb1461039c5780638f9c79ed146103cc5780638fa79390146103fc576101cf565b806349d8fea1146102ee5780635e3908801461031e57806360ebd6901461034e576101cf565b80633465d6d5116101ad5780633465d6d51461023e57806339f0b138146102705780633eb23e69146102a05780634761658e146102be576101cf565b8063030b35cb146101d45780631b9d1154146101f05780632f54bf6e1461020e575b600080fd5b6101ee60048036038101906101e991906132cc565b610688565b005b6101f86108fb565b604051610205919061335d565b60405180910390f35b610228600480360381019061022391906133d6565b610901565b604051610235919061341e565b60405180910390f35b610258600480360381019061025391906133d6565b610921565b604051610267939291906134b8565b60405180910390f35b61028a600480360381019061028591906134f6565b6109d3565b604051610297919061354e565b60405180910390f35b6102a8610a1c565b6040516102b5919061335d565b60405180910390f35b6102d860048036038101906102d391906134f6565b610a22565b6040516102e59190613569565b60405180910390f35b610308600480360381019061030391906134f6565b610bd7565b604051610315919061335d565b60405180910390f35b610338600480360381019061033391906133d6565b610cf2565b604051610345919061341e565b60405180910390f35b610356610d12565b604051610363919061335d565b60405180910390f35b610386600480360381019061038191906134f6565b610d18565b604051610393919061341e565b60405180910390f35b6103b660048036038101906103b191906132cc565b6111eb565b6040516103c39190613569565b60405180910390f35b6103e660048036038101906103e191906133d6565b611217565b6040516103f3919061341e565b60405180910390f35b610416600480360381019061041191906135b7565b611237565b6040516104239190613569565b60405180910390f35b610446600480360381019061044191906134f6565b6115ae565b005b610462600480360381019061045d91906133d6565b61168d565b60405161046f919061341e565b60405180910390f35b610492600480360381019061048d919061363f565b6116ad565b005b61049c611be5565b6040516104a9919061335d565b60405180910390f35b6104ba611beb565b6040516104c7919061335d565b60405180910390f35b6104ea60048036038101906104e591906133d6565b611bf1565b6040516104f7919061341e565b60405180910390f35b61051a600480360381019061051591906132cc565b611c11565b604051610527919061341e565b60405180910390f35b61054a600480360381019061054591906136ae565b611c6a565b604051610557919061335d565b60405180910390f35b61057a600480360381019061057591906133d6565b611d5c565b604051610587919061341e565b60405180910390f35b6105aa60048036038101906105a591906134f6565b611d7c565b6040516105b7919061335d565b60405180910390f35b6105da60048036038101906105d591906136db565b611ea8565b005b6105f660048036038101906105f191906136ae565b612706565b604051610603919061335d565b60405180910390f35b610626600480360381019061062191906133d6565b6127f8565b604051610633919061354e565b60405180910390f35b610656600480360381019061065191906133d6565b61282b565b6040516106639190613569565b60405180910390f35b610686600480360381019061068191906133d6565b6128cb565b005b6000600b8260405161069a9190613773565b908152602001604051809103902060009054906101000a900473ffffffffffffffffffffffffffffffffffffffff169050600660008273ffffffffffffffffffffffffffffffffffffffff1673ffffffffffffffffffffffffffffffffffffffff16815260200190815260200160002060009054906101000a900460ff16610757576040517f08c379a000000000000000000000000000000000000000000000000000000000815260040161074e906137d6565b60405180910390fd5b61076082610d18565b80156107b55750600960003373ffffffffffffffffffffffffffffffffffffffff1673ffffffffffffffffffffffffffffffffffffffff16815260200190815260200160002060009054906101000a900460ff165b6107f4576040517f08c379a00000000000000000000000000000000000000000000000000000000081526004016107eb90613842565b60405180910390fd5b6000600e60008373ffffffffffffffffffffffffffffffffffffffff1673ffffffffffffffffffffffffffffffffffffffff1681526020019081526020016000206004015490506001816108489190613891565b905083600e60008473ffffffffffffffffffffffffffffffffffffffff1673ffffffffffffffffffffffffffffffffffffffff168152602001908152602001600020600101600083815260200190815260200160002060000190816108ad9190613ad1565b5080600e60008473ffffffffffffffffffffffffffffffffffffffff1673ffffffffffffffffffffffffffffffffffffffff1681526020019081526020016000206004018190555050505050565b60015481565b600a6020528060005260406000206000915054906101000a900460ff1681565b600e602052806000526040600020600091509050806000018054610944906138f4565b80601f0160208091040260200160405190810160405280929190818152602001828054610970906138f4565b80156109bd5780601f10610992576101008083540402835291602001916109bd565b820191906000526020600020905b8154815290600101906020018083116109a057829003601f168201915b5050505050908060030154908060040154905083565b600b818051602081018201805184825260208301602085012081835280955050505050506000915054906101000a900473ffffffffffffffffffffffffffffffffffffffff1681565b60025481565b60606000600b83604051610a369190613773565b908152602001604051809103902060009054906101000a900473ffffffffffffffffffffffffffffffffffffffff169050600660008273ffffffffffffffffffffffffffffffffffffffff1673ffffffffffffffffffffffffffffffffffffffff16815260200190815260200160002060009054906101000a900460ff168015610ac55750610ac483610d18565b5b610b04576040517f08c379a0000000000000000000000000000000000000000000000000000000008152600401610afb906137d6565b60405180910390fd5b600e60008273ffffffffffffffffffffffffffffffffffffffff1673ffffffffffffffffffffffffffffffffffffffff1681526020019081526020016000206000018054610b51906138f4565b80601f0160208091040260200160405190810160405280929190818152602001828054610b7d906138f4565b8015610bca5780601f10610b9f57610100808354040283529160200191610bca565b820191906000526020600020905b815481529060010190602001808311610bad57829003601f168201915b5050505050915050919050565b600080600b83604051610bea9190613773565b908152602001604051809103902060009054906101000a900473ffffffffffffffffffffffffffffffffffffffff169050600660008273ffffffffffffffffffffffffffffffffffffffff1673ffffffffffffffffffffffffffffffffffffffff16815260200190815260200160002060009054906101000a900460ff16610ca7576040517f08c379a0000000000000000000000000000000000000000000000000000000008152600401610c9e906137d6565b60405180910390fd5b600e60008273ffffffffffffffffffffffffffffffffffffffff1673ffffffffffffffffffffffffffffffffffffffff16815260200190815260200160002060030154915050919050565b60076020528060005260406000206000915054906101000a900460ff1681565b60035481565b600080600b83604051610d2b9190613773565b908152602001604051809103902060009054906101000a900473ffffffffffffffffffffffffffffffffffffffff169050600660008273ffffffffffffffffffffffffffffffffffffffff1673ffffffffffffffffffffffffffffffffffffffff16815260200190815260200160002060009054906101000a900460ff16610de8576040517f08c379a0000000000000000000000000000000000000000000000000000000008152600401610ddf90613bef565b60405180910390fd5b8073ffffffffffffffffffffffffffffffffffffffff163373ffffffffffffffffffffffffffffffffffffffff1603610e93578073ffffffffffffffffffffffffffffffffffffffff163373ffffffffffffffffffffffffffffffffffffffff1614610e89576040517f08c379a0000000000000000000000000000000000000000000000000000000008152600401610e8090613c5b565b60405180910390fd5b60019150506111e6565b600860003373ffffffffffffffffffffffffffffffffffffffff1673ffffffffffffffffffffffffffffffffffffffff16815260200190815260200160002060009054906101000a900460ff1680610f345750600960003373ffffffffffffffffffffffffffffffffffffffff1673ffffffffffffffffffffffffffffffffffffffff16815260200190815260200160002060009054906101000a900460ff165b610f73576040517f08c379a0000000000000000000000000000000000000000000000000000000008152600401610f6a90613cc7565b60405180910390fd5b6000600c60003373ffffffffffffffffffffffffffffffffffffffff1673ffffffffffffffffffffffffffffffffffffffff16815260200190815260200160002060009054906101000a900473ffffffffffffffffffffffffffffffffffffffff169050600560008273ffffffffffffffffffffffffffffffffffffffff1673ffffffffffffffffffffffffffffffffffffffff16815260200190815260200160002060009054906101000a900460ff16806110785750600760008273ffffffffffffffffffffffffffffffffffffffff1673ffffffffffffffffffffffffffffffffffffffff16815260200190815260200160002060009054906101000a900460ff165b6110b7576040517f08c379a00000000000000000000000000000000000000000000000000000000081526004016110ae90613d33565b60405180910390fd5b60005b600e60008473ffffffffffffffffffffffffffffffffffffffff1673ffffffffffffffffffffffffffffffffffffffff168152602001908152602001600020600201805490508110156111de576000600e60008573ffffffffffffffffffffffffffffffffffffffff1673ffffffffffffffffffffffffffffffffffffffff168152602001908152602001600020600201828154811061115d5761115c613d53565b5b9060005260206000200160009054906101000a900473ffffffffffffffffffffffffffffffffffffffff1690508273ffffffffffffffffffffffffffffffffffffffff168173ffffffffffffffffffffffffffffffffffffffff16036111ca5760019450505050506111e6565b5080806111d690613d82565b9150506110ba565b505060009150505b919050565b60608282604051602001611200929190613dca565b604051602081830303815290604052905092915050565b60066020528060005260406000206000915054906101000a900460ff1681565b60606000600b8460405161124b9190613773565b908152602001604051809103902060009054906101000a900473ffffffffffffffffffffffffffffffffffffffff169050600660008273ffffffffffffffffffffffffffffffffffffffff1673ffffffffffffffffffffffffffffffffffffffff16815260200190815260200160002060009054906101000a900460ff16611308576040517f08c379a00000000000000000000000000000000000000000000000000000000081526004016112ff906137d6565b60405180910390fd5b60056000600c60003373ffffffffffffffffffffffffffffffffffffffff1673ffffffffffffffffffffffffffffffffffffffff16815260200190815260200160002060009054906101000a900473ffffffffffffffffffffffffffffffffffffffff1673ffffffffffffffffffffffffffffffffffffffff1673ffffffffffffffffffffffffffffffffffffffff16815260200190815260200160002060009054906101000a900460ff168061143f5750600660003373ffffffffffffffffffffffffffffffffffffffff1673ffffffffffffffffffffffffffffffffffffffff16815260200190815260200160002060009054906101000a900460ff16801561143e57508073ffffffffffffffffffffffffffffffffffffffff163373ffffffffffffffffffffffffffffffffffffffff16145b5b61147e576040517f08c379a000000000000000000000000000000000000000000000000000000000815260040161147590613d33565b60405180910390fd5b61148784610d18565b6114c6576040517f08c379a00000000000000000000000000000000000000000000000000000000081526004016114bd90613e3a565b60405180910390fd5b600e60008273ffffffffffffffffffffffffffffffffffffffff1673ffffffffffffffffffffffffffffffffffffffff16815260200190815260200160002060010160008481526020019081526020016000206000018054611527906138f4565b80601f0160208091040260200160405190810160405280929190818152602001828054611553906138f4565b80156115a05780601f10611575576101008083540402835291602001916115a0565b820191906000526020600020905b81548152906001019060200180831161158357829003601f168201915b505050505091505092915050565b600660003373ffffffffffffffffffffffffffffffffffffffff1673ffffffffffffffffffffffffffffffffffffffff16815260200190815260200160002060009054906101000a900460ff1661163a576040517f08c379a000000000000000000000000000000000000000000000000000000000815260040161163190613ea6565b60405180910390fd5b80600e60003373ffffffffffffffffffffffffffffffffffffffff1673ffffffffffffffffffffffffffffffffffffffff16815260200190815260200160002060000190816116899190613ad1565b5050565b60086020528060005260406000206000915054906101000a900460ff1681565b600860003373ffffffffffffffffffffffffffffffffffffffff1673ffffffffffffffffffffffffffffffffffffffff16815260200190815260200160002060009054906101000a900460ff16611739576040517f08c379a000000000000000000000000000000000000000000000000000000000815260040161173090613f12565b60405180910390fd5b6000600b8460405161174b9190613773565b908152602001604051809103902060009054906101000a900473ffffffffffffffffffffffffffffffffffffffff16905061178584610d18565b8061182357506002600e60008373ffffffffffffffffffffffffffffffffffffffff1673ffffffffffffffffffffffffffffffffffffffff168152602001908152602001600020600101600085815260200190815260200160002060040160003373ffffffffffffffffffffffffffffffffffffffff1673ffffffffffffffffffffffffffffffffffffffff16815260200190815260200160002054145b611862576040517f08c379a000000000000000000000000000000000000000000000000000000000815260040161185990613d33565b60405180910390fd5b600660008273ffffffffffffffffffffffffffffffffffffffff1673ffffffffffffffffffffffffffffffffffffffff16815260200190815260200160002060009054906101000a900460ff166118ee576040517f08c379a00000000000000000000000000000000000000000000000000000000081526004016118e5906137d6565b60405180910390fd5b600e60008273ffffffffffffffffffffffffffffffffffffffff1673ffffffffffffffffffffffffffffffffffffffff168152602001908152602001600020600101600084815260200190815260200160002060030160003373ffffffffffffffffffffffffffffffffffffffff1673ffffffffffffffffffffffffffffffffffffffff16815260200190815260200160002060009054906101000a900460ff16156119cf576040517f08c379a00000000000000000000000000000000000000000000000000000000081526004016119c690613f7e565b60405180910390fd5b82600e60008373ffffffffffffffffffffffffffffffffffffffff1673ffffffffffffffffffffffffffffffffffffffff168152602001908152602001600020600401541015611a54576040517f08c379a0000000000000000000000000000000000000000000000000000000008152600401611a4b90613fea565b60405180910390fd5b6001600e60008373ffffffffffffffffffffffffffffffffffffffff1673ffffffffffffffffffffffffffffffffffffffff168152602001908152602001600020600101600085815260200190815260200160002060030160003373ffffffffffffffffffffffffffffffffffffffff1673ffffffffffffffffffffffffffffffffffffffff16815260200190815260200160002060006101000a81548160ff021916908315150217905550600e60008273ffffffffffffffffffffffffffffffffffffffff1673ffffffffffffffffffffffffffffffffffffffff16815260200190815260200160002060010160008481526020019081526020016000206001016000815480929190611b6790613d82565b91905055508115611bdf57600e60008273ffffffffffffffffffffffffffffffffffffffff1673ffffffffffffffffffffffffffffffffffffffff16815260200190815260200160002060010160008481526020019081526020016000206002016000815480929190611bd990613d82565b91905055505b50505050565b60005481565b60045481565b60056020528060005260406000206000915054906101000a900460ff1681565b600081604051602001611c249190613773565b6040516020818303038152906040528051906020012083604051602001611c4b9190613773565b6040516020818303038152906040528051906020012014905092915050565b6000600660003373ffffffffffffffffffffffffffffffffffffffff1673ffffffffffffffffffffffffffffffffffffffff16815260200190815260200160002060009054906101000a900460ff16611cf8576040517f08c379a0000000000000000000000000000000000000000000000000000000008152600401611cef906137d6565b60405180910390fd5b6000600e60003373ffffffffffffffffffffffffffffffffffffffff1673ffffffffffffffffffffffffffffffffffffffff168152602001908152602001600020600101600084815260200190815260200160002060020154905080915050919050565b60096020528060005260406000206000915054906101000a900460ff1681565b600080600b83604051611d8f9190613773565b908152602001604051809103902060009054906101000a900473ffffffffffffffffffffffffffffffffffffffff169050600660008273ffffffffffffffffffffffffffffffffffffffff1673ffffffffffffffffffffffffffffffffffffffff16815260200190815260200160002060009054906101000a900460ff168015611e1e5750611e1d83610d18565b5b611e5d576040517f08c379a0000000000000000000000000000000000000000000000000000000008152600401611e5490613bef565b60405180910390fd5b600e60008273ffffffffffffffffffffffffffffffffffffffff1673ffffffffffffffffffffffffffffffffffffffff16815260200190815260200160002060040154915050919050565b600a60003373ffffffffffffffffffffffffffffffffffffffff1673ffffffffffffffffffffffffffffffffffffffff16815260200190815260200160002060009054906101000a900460ff16611f34576040517f08c379a0000000000000000000000000000000000000000000000000000000008152600401611f2b90614056565b60405180910390fd5b81600073ffffffffffffffffffffffffffffffffffffffff168173ffffffffffffffffffffffffffffffffffffffff1603611fa4576040517f08c379a0000000000000000000000000000000000000000000000000000000008152600401611f9b906140c2565b60405180910390fd5b600860008273ffffffffffffffffffffffffffffffffffffffff1673ffffffffffffffffffffffffffffffffffffffff16815260200190815260200160002060009054906101000a900460ff161580156120485750600960008273ffffffffffffffffffffffffffffffffffffffff1673ffffffffffffffffffffffffffffffffffffffff16815260200190815260200160002060009054906101000a900460ff16155b801561209e5750600760008273ffffffffffffffffffffffffffffffffffffffff1673ffffffffffffffffffffffffffffffffffffffff16815260200190815260200160002060009054906101000a900460ff16155b80156120f45750600660008273ffffffffffffffffffffffffffffffffffffffff1673ffffffffffffffffffffffffffffffffffffffff16815260200190815260200160002060009054906101000a900460ff16155b801561214a5750600a60008273ffffffffffffffffffffffffffffffffffffffff1673ffffffffffffffffffffffffffffffffffffffff16815260200190815260200160002060009054906101000a900460ff16155b80156121a05750600560008273ffffffffffffffffffffffffffffffffffffffff1673ffffffffffffffffffffffffffffffffffffffff16815260200190815260200160002060009054906101000a900460ff16155b6121df576040517f08c379a00000000000000000000000000000000000000000000000000000000081526004016121d69061412e565b60405180910390fd5b61221e826040518060400160405280600881526020017f686f73706974616c000000000000000000000000000000000000000000000000815250611c11565b15612396576001600560008573ffffffffffffffffffffffffffffffffffffffff1673ffffffffffffffffffffffffffffffffffffffff16815260200190815260200160002060006101000a81548160ff0219169083151502179055506001600081548092919061228e90613d82565b919050555060006122a060015461300c565b905060006122e36040518060400160405280600181526020017f6800000000000000000000000000000000000000000000000000000000000000815250836111eb565b905084600b826040516122f69190613773565b908152602001604051809103902060006101000a81548173ffffffffffffffffffffffffffffffffffffffff021916908373ffffffffffffffffffffffffffffffffffffffff16021790555080600d60008773ffffffffffffffffffffffffffffffffffffffff1673ffffffffffffffffffffffffffffffffffffffff168152602001908152602001600020908161238e9190613ad1565b505050612701565b6123d5826040518060400160405280600381526020017f6c61620000000000000000000000000000000000000000000000000000000000815250611c11565b1561254d576001600760008573ffffffffffffffffffffffffffffffffffffffff1673ffffffffffffffffffffffffffffffffffffffff16815260200190815260200160002060006101000a81548160ff0219169083151502179055506004600081548092919061244590613d82565b9190505550600061245760045461300c565b9050600061249a6040518060400160405280600181526020017f6c00000000000000000000000000000000000000000000000000000000000000815250836111eb565b905084600b826040516124ad9190613773565b908152602001604051809103902060006101000a81548173ffffffffffffffffffffffffffffffffffffffff021916908373ffffffffffffffffffffffffffffffffffffffff16021790555080600d60008773ffffffffffffffffffffffffffffffffffffffff1673ffffffffffffffffffffffffffffffffffffffff16815260200190815260200160002090816125459190613ad1565b505050612700565b61258c826040518060400160405280600781526020017f70617469656e7400000000000000000000000000000000000000000000000000815250611c11565b156126ff576001600660008573ffffffffffffffffffffffffffffffffffffffff1673ffffffffffffffffffffffffffffffffffffffff16815260200190815260200160002060006101000a81548160ff0219169083151502179055506000808154809291906125fb90613d82565b9190505550600061260d60005461300c565b905060006126506040518060400160405280600181526020017f7000000000000000000000000000000000000000000000000000000000000000815250836111eb565b905084600b826040516126639190613773565b908152602001604051809103902060006101000a81548173ffffffffffffffffffffffffffffffffffffffff021916908373ffffffffffffffffffffffffffffffffffffffff16021790555080600d60008773ffffffffffffffffffffffffffffffffffffffff1673ffffffffffffffffffffffffffffffffffffffff16815260200190815260200160002090816126fb9190613ad1565b5050505b5b5b505050565b6000600660003373ffffffffffffffffffffffffffffffffffffffff1673ffffffffffffffffffffffffffffffffffffffff16815260200190815260200160002060009054906101000a900460ff16612794576040517f08c379a000000000000000000000000000000000000000000000000000000000815260040161278b906137d6565b60405180910390fd5b6000600e60003373ffffffffffffffffffffffffffffffffffffffff1673ffffffffffffffffffffffffffffffffffffffff168152602001908152602001600020600101600084815260200190815260200160002060010154905080915050919050565b600c6020528060005260406000206000915054906101000a900473ffffffffffffffffffffffffffffffffffffffff1681565b600d602052806000526040600020600091509050805461284a906138f4565b80601f0160208091040260200160405190810160405280929190818152602001828054612876906138f4565b80156128c35780601f10612898576101008083540402835291602001916128c3565b820191906000526020600020905b8154815290600101906020018083116128a657829003601f168201915b505050505081565b80600073ffffffffffffffffffffffffffffffffffffffff168173ffffffffffffffffffffffffffffffffffffffff160361293b576040517f08c379a0000000000000000000000000000000000000000000000000000000008152600401612932906140c2565b60405180910390fd5b600860008273ffffffffffffffffffffffffffffffffffffffff1673ffffffffffffffffffffffffffffffffffffffff16815260200190815260200160002060009054906101000a900460ff161580156129df5750600960008273ffffffffffffffffffffffffffffffffffffffff1673ffffffffffffffffffffffffffffffffffffffff16815260200190815260200160002060009054906101000a900460ff16155b8015612a355750600760008273ffffffffffffffffffffffffffffffffffffffff1673ffffffffffffffffffffffffffffffffffffffff16815260200190815260200160002060009054906101000a900460ff16155b8015612a8b5750600660008273ffffffffffffffffffffffffffffffffffffffff1673ffffffffffffffffffffffffffffffffffffffff16815260200190815260200160002060009054906101000a900460ff16155b8015612ae15750600a60008273ffffffffffffffffffffffffffffffffffffffff1673ffffffffffffffffffffffffffffffffffffffff16815260200190815260200160002060009054906101000a900460ff16155b8015612b375750600560008273ffffffffffffffffffffffffffffffffffffffff1673ffffffffffffffffffffffffffffffffffffffff16815260200190815260200160002060009054906101000a900460ff16155b612b76576040517f08c379a0000000000000000000000000000000000000000000000000000000008152600401612b6d9061412e565b60405180910390fd5b600560003373ffffffffffffffffffffffffffffffffffffffff1673ffffffffffffffffffffffffffffffffffffffff16815260200190815260200160002060009054906101000a900460ff1680612c175750600760003373ffffffffffffffffffffffffffffffffffffffff1673ffffffffffffffffffffffffffffffffffffffff16815260200190815260200160002060009054906101000a900460ff165b612c56576040517f08c379a0000000000000000000000000000000000000000000000000000000008152600401612c4d9061419a565b60405180910390fd5b600560003373ffffffffffffffffffffffffffffffffffffffff1673ffffffffffffffffffffffffffffffffffffffff16815260200190815260200160002060009054906101000a900460ff1615612e1b5760026000815480929190612cbb90613d82565b91905055506001600860008473ffffffffffffffffffffffffffffffffffffffff1673ffffffffffffffffffffffffffffffffffffffff16815260200190815260200160002060006101000a81548160ff0219169083151502179055506000612d2560025461300c565b90506000612d686040518060400160405280600181526020017f6400000000000000000000000000000000000000000000000000000000000000815250836111eb565b905083600b82604051612d7b9190613773565b908152602001604051809103902060006101000a81548173ffffffffffffffffffffffffffffffffffffffff021916908373ffffffffffffffffffffffffffffffffffffffff16021790555080600d60008673ffffffffffffffffffffffffffffffffffffffff1673ffffffffffffffffffffffffffffffffffffffff1681526020019081526020016000209081612e139190613ad1565b505050612f8a565b6001600960008473ffffffffffffffffffffffffffffffffffffffff1673ffffffffffffffffffffffffffffffffffffffff16815260200190815260200160002060006101000a81548160ff02191690831515021790555060036000815480929190612e8690613d82565b91905055506000612e9860035461300c565b90506000612edb6040518060400160405280600181526020017f7400000000000000000000000000000000000000000000000000000000000000815250836111eb565b905083600b82604051612eee9190613773565b908152602001604051809103902060006101000a81548173ffffffffffffffffffffffffffffffffffffffff021916908373ffffffffffffffffffffffffffffffffffffffff16021790555080600d60008673ffffffffffffffffffffffffffffffffffffffff1673ffffffffffffffffffffffffffffffffffffffff1681526020019081526020016000209081612f869190613ad1565b5050505b33600c60008473ffffffffffffffffffffffffffffffffffffffff1673ffffffffffffffffffffffffffffffffffffffff16815260200190815260200160002060006101000a81548173ffffffffffffffffffffffffffffffffffffffff021916908373ffffffffffffffffffffffffffffffffffffffff1602179055505050565b606060008203613053576040518060400160405280600181526020017f3000000000000000000000000000000000000000000000000000000000000000815250905061316d565b600082905060005b6000821461308557808061306e90613d82565b915050600a8261307e91906141e9565b915061305b565b60008167ffffffffffffffff8111156130a1576130a06131a1565b5b6040519080825280601f01601f1916602001820160405280156130d35781602001600182028036833780820191505090505b50905060008290508593505b6000841461316557600a846130f4919061421a565b60306131009190613891565b60f81b828261310e9061424b565b9250828151811061312257613121613d53565b5b60200101907effffffffffffffffffffffffffffffffffffffffffffffffffffffffffffff1916908160001a905350600a8461315e91906141e9565b93506130df565b819450505050505b919050565b6000604051905090565b600080fd5b600080fd5b600080fd5b600080fd5b6000601f19601f8301169050919050565b7f4e487b7100000000000000000000000000000000000000000000000000000000600052604160045260246000fd5b6131d982613190565b810181811067ffffffffffffffff821117156131f8576131f76131a1565b5b80604052505050565b600061320b613172565b905061321782826131d0565b919050565b600067ffffffffffffffff821115613237576132366131a1565b5b61324082613190565b9050602081019050919050565b82818337600083830152505050565b600061326f61326a8461321c565b613201565b90508281526020810184848401111561328b5761328a61318b565b5b61329684828561324d565b509392505050565b600082601f8301126132b3576132b2613186565b5b81356132c384826020860161325c565b91505092915050565b600080604083850312156132e3576132e261317c565b5b600083013567ffffffffffffffff81111561330157613300613181565b5b61330d8582860161329e565b925050602083013567ffffffffffffffff81111561332e5761332d613181565b5b61333a8582860161329e565b9150509250929050565b6000819050919050565b61335781613344565b82525050565b6000602082019050613372600083018461334e565b92915050565b600073ffffffffffffffffffffffffffffffffffffffff82169050919050565b60006133a382613378565b9050919050565b6133b381613398565b81146133be57600080fd5b50565b6000813590506133d0816133aa565b92915050565b6000602082840312156133ec576133eb61317c565b5b60006133fa848285016133c1565b91505092915050565b60008115159050919050565b61341881613403565b82525050565b6000602082019050613433600083018461340f565b92915050565b600081519050919050565b600082825260208201905092915050565b60005b83811015613473578082015181840152602081019050613458565b60008484015250505050565b600061348a82613439565b6134948185613444565b93506134a4818560208601613455565b6134ad81613190565b840191505092915050565b600060608201905081810360008301526134d2818661347f565b90506134e1602083018561334e565b6134ee604083018461334e565b949350505050565b60006020828403121561350c5761350b61317c565b5b600082013567ffffffffffffffff81111561352a57613529613181565b5b6135368482850161329e565b91505092915050565b61354881613398565b82525050565b6000602082019050613563600083018461353f565b92915050565b60006020820190508181036000830152613583818461347f565b905092915050565b61359481613344565b811461359f57600080fd5b50565b6000813590506135b18161358b565b92915050565b600080604083850312156135ce576135cd61317c565b5b600083013567ffffffffffffffff8111156135ec576135eb613181565b5b6135f88582860161329e565b9250506020613609858286016135a2565b9150509250929050565b61361c81613403565b811461362757600080fd5b50565b60008135905061363981613613565b92915050565b6000806000606084860312156136585761365761317c565b5b600084013567ffffffffffffffff81111561367657613675613181565b5b6136828682870161329e565b9350506020613693868287016135a2565b92505060406136a48682870161362a565b9150509250925092565b6000602082840312156136c4576136c361317c565b5b60006136d2848285016135a2565b91505092915050565b600080604083850312156136f2576136f161317c565b5b6000613700858286016133c1565b925050602083013567ffffffffffffffff81111561372157613720613181565b5b61372d8582860161329e565b9150509250929050565b600081905092915050565b600061374d82613439565b6137578185613737565b9350613767818560208601613455565b80840191505092915050565b600061377f8284613742565b915081905092915050565b7f6e6f7420612070617469656e7400000000000000000000000000000000000000600082015250565b60006137c0600d83613444565b91506137cb8261378a565b602082019050919050565b600060208201905081810360008301526137ef816137b3565b9050919050565b7f6e6f742061206c61625465636800000000000000000000000000000000000000600082015250565b600061382c600d83613444565b9150613837826137f6565b602082019050919050565b6000602082019050818103600083015261385b8161381f565b9050919050565b7f4e487b7100000000000000000000000000000000000000000000000000000000600052601160045260246000fd5b600061389c82613344565b91506138a783613344565b92508282019050808211156138bf576138be613862565b5b92915050565b7f4e487b7100000000000000000000000000000000000000000000000000000000600052602260045260246000fd5b6000600282049050600182168061390c57607f821691505b60208210810361391f5761391e6138c5565b5b50919050565b60008190508160005260206000209050919050565b60006020601f8301049050919050565b600082821b905092915050565b6000600883026139877fffffffffffffffffffffffffffffffffffffffffffffffffffffffffffffffff8261394a565b613991868361394a565b95508019841693508086168417925050509392505050565b6000819050919050565b60006139ce6139c96139c484613344565b6139a9565b613344565b9050919050565b6000819050919050565b6139e8836139b3565b6139fc6139f4826139d5565b848454613957565b825550505050565b600090565b613a11613a04565b613a1c8184846139df565b505050565b5b81811015613a4057613a35600082613a09565b600181019050613a22565b5050565b601f821115613a8557613a5681613925565b613a5f8461393a565b81016020851015613a6e578190505b613a82613a7a8561393a565b830182613a21565b50505b505050565b600082821c905092915050565b6000613aa860001984600802613a8a565b1980831691505092915050565b6000613ac18383613a97565b9150826002028217905092915050565b613ada82613439565b67ffffffffffffffff811115613af357613af26131a1565b5b613afd82546138f4565b613b08828285613a44565b600060209050601f831160018114613b3b5760008415613b29578287015190505b613b338582613ab5565b865550613b9b565b601f198416613b4986613925565b60005b82811015613b7157848901518255600182019150602085019450602081019050613b4c565b86831015613b8e5784890151613b8a601f891682613a97565b8355505b6001600288020188555050505b505050505050565b7f6e6f7420612070617469656e7427732069640000000000000000000000000000600082015250565b6000613bd9601283613444565b9150613be482613ba3565b602082019050919050565b60006020820190508181036000830152613c0881613bcc565b9050919050565b7f74727920796f7572206964000000000000000000000000000000000000000000600082015250565b6000613c45600b83613444565b9150613c5082613c0f565b602082019050919050565b60006020820190508181036000830152613c7481613c38565b9050919050565b7f6e6f74206120776f726b65720000000000000000000000000000000000000000600082015250565b6000613cb1600c83613444565b9150613cbc82613c7b565b602082019050919050565b60006020820190508181036000830152613ce081613ca4565b9050919050565b7f6e6f7420616c6c6f776564000000000000000000000000000000000000000000600082015250565b6000613d1d600b83613444565b9150613d2882613ce7565b602082019050919050565b60006020820190508181036000830152613d4c81613d10565b9050919050565b7f4e487b7100000000000000000000000000000000000000000000000000000000600052603260045260246000fd5b6000613d8d82613344565b91507fffffffffffffffffffffffffffffffffffffffffffffffffffffffffffffffff8203613dbf57613dbe613862565b5b600182019050919050565b6000613dd68285613742565b9150613de28284613742565b91508190509392505050565b7f6e6f7420612076616c6964207265717565737400000000000000000000000000600082015250565b6000613e24601383613444565b9150613e2f82613dee565b602082019050919050565b60006020820190508181036000830152613e5381613e17565b9050919050565b7f73656e646572206973206e6f742070617469656e740000000000000000000000600082015250565b6000613e90601583613444565b9150613e9b82613e5a565b602082019050919050565b60006020820190508181036000830152613ebf81613e83565b9050919050565b7f73656e646572206973206e6f74206120646f63746f7200000000000000000000600082015250565b6000613efc601683613444565b9150613f0782613ec6565b602082019050919050565b60006020820190508181036000830152613f2b81613eef565b9050919050565b7f6861766520636f6e6669726d656420616c726561647900000000000000000000600082015250565b6000613f68601683613444565b9150613f7382613f32565b602082019050919050565b60006020820190508181036000830152613f9781613f5b565b9050919050565b7f696e76616c6964207265706f7274204964000000000000000000000000000000600082015250565b6000613fd4601183613444565b9150613fdf82613f9e565b602082019050919050565b6000602082019050818103600083015261400381613fc7565b9050919050565b7f73656e646572206973206e6f74206f776e657200000000000000000000000000600082015250565b6000614040601383613444565b915061404b8261400a565b602082019050919050565b6000602082019050818103600083015261406f81614033565b9050919050565b7f6e756c6c206164647265737320666f756e640000000000000000000000000000600082015250565b60006140ac601283613444565b91506140b782614076565b602082019050919050565b600060208201905081810360008301526140db8161409f565b9050919050565b7f7072652d6578697374696e672061646472657373000000000000000000000000600082015250565b6000614118601483613444565b9150614123826140e2565b602082019050919050565b600060208201905081810360008301526141478161410b565b9050919050565b7f756e617574686f72697a65642061636365737300000000000000000000000000600082015250565b6000614184601383613444565b915061418f8261414e565b602082019050919050565b600060208201905081810360008301526141b381614177565b9050919050565b7f4e487b7100000000000000000000000000000000000000000000000000000000600052601260045260246000fd5b60006141f482613344565b91506141ff83613344565b92508261420f5761420e6141ba565b5b828204905092915050565b600061422582613344565b915061423083613344565b9250826142405761423f6141ba565b5b828206905092915050565b600061425682613344565b91506000820361426957614268613862565b5b60018203905091905056fea2646970667358221220d5d802f51118cdd1b2073d04c03004882de4194a037eb2eddec32dd8820cffbf64736f6c63430008110033",
  "immutableReferences": {},
  "source": "// SPDX-License-Identifier: MIT\r\npragma solidity ^0.8;\r\n\r\nimport \"../contracts/details.sol\";\r\n\r\ncontract updateReport is details{\r\n\r\n\r\n    // lab technician at approved lab can add a patient's med info\r\n    function setMedInfoHash(  \r\n        string memory _mHash,\r\n        string memory _id    \r\n    )public\r\n    {\r\n        address _patientAddress  = Id[_id];\r\n\r\n        require(isPatient[_patientAddress], \"not a patient\" );\r\n        require(isAllowed(_id) && isTech[msg.sender],\"not a labTech\");\r\n\r\n        uint256 last = record[_patientAddress].totalRecord;\r\n        last += 1;\r\n        record[_patientAddress].medicalInfoHash[last].cid = _mHash;\r\n        record[_patientAddress].totalRecord = last;\r\n    }\r\n    // patient or doctors at approved insti can see a patient medical info\r\n    function getMedInfoHash(string memory _id,uint256 _reportId)\r\n    public view \r\n    returns(string memory){\r\n        address _patientAddress = Id[_id];\r\n        require(isPatient[_patientAddress], \"not a patient\" );\r\n        require(isHospital[worksAt[msg.sender]] || (isPatient[msg.sender] && msg.sender == _patientAddress) , \"not allowed\");\r\n        require(isAllowed(_id),\"not a valid request\");\r\n        return record[_patientAddress].medicalInfoHash[_reportId].cid;        \r\n    }\r\n\r\n    // doctors at approved hospitals can confirm the disease status\r\n    function confirmDisease(\r\n        string memory _id,\r\n        uint256 _reportId,\r\n        bool status)\r\n        public\r\n        onlyDoctor\r\n    {\r\n        address _patientAddress = Id[_id];\r\n        require(isAllowed(_id) || \r\n        record[_patientAddress].medicalInfoHash[_reportId].refferedTo[msg.sender] == 2,\"not allowed\");\r\n        require(isPatient[_patientAddress], \"not a patient\" );\r\n        require(!record[_patientAddress].medicalInfoHash[_reportId].confirmedBy[msg.sender] , \"have confirmed already\");\r\n        require(record[_patientAddress].totalRecord >= _reportId,\"invalid report Id\");\r\n        record[_patientAddress].medicalInfoHash[_reportId].confirmedBy[msg.sender] = true;\r\n        record[_patientAddress].medicalInfoHash[_reportId].consultationCnt++;\r\n        if(status){\r\n            record[_patientAddress].medicalInfoHash[_reportId].confirmationCnt++;\r\n        }\r\n        \r\n    }\r\n\r\n    \r\n}",
  "sourcePath": "C:\\Users\\Faisal Rahman\\Documents\\vsCodeF\\.vscode\\majorProject\\MajorProject\\contracts\\updateReport.sol",
  "compiler": {
    "name": "solc",
    "version": "0.8.17+commit.8df45f5f.Emscripten.clang"
  },
  "schemaVersion": "3.4.11",
  "updatedAt": "2023-01-23T18:41:45.059Z",
  "devdoc": {
    "kind": "dev",
    "methods": {},
    "version": 1
  },
  "userdoc": {
    "kind": "user",
    "methods": {},
    "version": 1
  }
}